{
    "contractName": "Employer",
    "abi": [
        {
            "inputs": [],
            "stateMutability": "payable",
            "type": "constructor"
        },
        {
            "anonymous": false,
            "inputs": [
                {
                    "indexed": false,
                    "internalType": "address",
                    "name": "sender",
                    "type": "address"
                },
                {
                    "indexed": false,
                    "internalType": "uint256",
                    "name": "amount",
                    "type": "uint256"
                },
                {
                    "indexed": false,
                    "internalType": "uint256",
                    "name": "balance",
                    "type": "uint256"
                }
            ],
            "name": "Deposit",
            "type": "event"
        },
        {
            "anonymous": false,
            "inputs": [
                {
                    "indexed": false,
                    "internalType": "address",
                    "name": "to",
                    "type": "address"
                },
                {
                    "indexed": false,
                    "internalType": "uint256",
                    "name": "amount",
                    "type": "uint256"
                },
                {
                    "indexed": false,
                    "internalType": "uint256",
                    "name": "balance",
                    "type": "uint256"
                }
            ],
            "name": "Transfer",
            "type": "event"
        },
        {
            "anonymous": false,
            "inputs": [
                {
                    "indexed": false,
                    "internalType": "uint256",
                    "name": "amount",
                    "type": "uint256"
                },
                {
                    "indexed": false,
                    "internalType": "uint256",
                    "name": "balance",
                    "type": "uint256"
                }
            ],
            "name": "Withdraw",
            "type": "event"
        },
        {
            "inputs": [],
            "name": "_to",
            "outputs": [
                {
                    "internalType": "address payable",
                    "name": "",
                    "type": "address"
                }
            ],
            "stateMutability": "view",
            "type": "function"
        },
        {
            "inputs": [
                {
                    "internalType": "address",
                    "name": "_address",
                    "type": "address"
                },
                {
                    "internalType": "string",
                    "name": "distance",
                    "type": "string"
                },
                {
                    "internalType": "string",
                    "name": "fetchedHour",
                    "type": "string"
                }
            ],
            "name": "contractCondition",
            "outputs": [],
            "stateMutability": "nonpayable",
            "type": "function"
        },
        {
            "inputs": [],
            "name": "countEmployees",
            "outputs": [
                {
                    "internalType": "uint256",
                    "name": "",
                    "type": "uint256"
                }
            ],
            "stateMutability": "view",
            "type": "function"
        },
        {
            "inputs": [],
            "name": "deposit",
            "outputs": [],
            "stateMutability": "payable",
            "type": "function"
        },
        {
            "inputs": [
                {
                    "internalType": "uint256",
                    "name": "",
                    "type": "uint256"
                }
            ],
            "name": "employeeAccts",
            "outputs": [
                {
                    "internalType": "address",
                    "name": "",
                    "type": "address"
                }
            ],
            "stateMutability": "view",
            "type": "function"
        },
        {
            "inputs": [],
            "name": "getAllEmployees",
            "outputs": [
                {
                    "internalType": "address[]",
                    "name": "",
                    "type": "address[]"
                }
            ],
            "stateMutability": "view",
            "type": "function"
        },
        {
            "inputs": [],
            "name": "getBalance",
            "outputs": [
                {
                    "internalType": "uint256",
                    "name": "",
                    "type": "uint256"
                }
            ],
            "stateMutability": "view",
            "type": "function"
        },
        {
            "inputs": [
                {
                    "internalType": "address",
                    "name": "_address",
                    "type": "address"
                }
            ],
            "name": "getEmployee",
            "outputs": [
                {
                    "internalType": "string",
                    "name": "",
                    "type": "string"
                },
                {
                    "internalType": "string",
                    "name": "",
                    "type": "string"
                },
                {
                    "internalType": "string",
                    "name": "",
                    "type": "string"
                },
                {
                    "internalType": "string",
                    "name": "",
                    "type": "string"
                },
                {
                    "internalType": "string",
                    "name": "",
                    "type": "string"
                },
                {
                    "internalType": "string",
                    "name": "",
                    "type": "string"
                }
            ],
            "stateMutability": "view",
            "type": "function"
        },
        {
            "inputs": [
                {
                    "internalType": "address",
                    "name": "_address",
                    "type": "address"
                }
            ],
            "name": "getResults",
            "outputs": [
                {
                    "components": [
                        {
                            "internalType": "string",
                            "name": "status",
                            "type": "string"
                        }
                    ],
                    "internalType": "struct Employer.Output",
                    "name": "",
                    "type": "tuple"
                }
            ],
            "stateMutability": "view",
            "type": "function"
        },
        {
            "inputs": [],
            "name": "notPayable",
            "outputs": [],
            "stateMutability": "nonpayable",
            "type": "function"
        },
        {
            "inputs": [],
            "name": "owner",
            "outputs": [
                {
                    "internalType": "address payable",
                    "name": "",
                    "type": "address"
                }
            ],
            "stateMutability": "view",
            "type": "function"
        },
        {
            "inputs": [
                {
                    "internalType": "address",
                    "name": "_address",
                    "type": "address"
                },
                {
                    "internalType": "string",
                    "name": "distance",
                    "type": "string"
                },
                {
                    "internalType": "string",
                    "name": "fetchedHour",
                    "type": "string"
                }
            ],
            "name": "setContract",
            "outputs": [
                {
                    "internalType": "string",
                    "name": "",
                    "type": "string"
                }
            ],
            "stateMutability": "view",
            "type": "function"
        },
        {
            "inputs": [
                {
                    "internalType": "address",
                    "name": "_address",
                    "type": "address"
                },
                {
                    "internalType": "string",
                    "name": "_empName",
                    "type": "string"
                },
                {
                    "internalType": "string",
                    "name": "_long",
                    "type": "string"
                },
                {
                    "internalType": "string",
                    "name": "_lat",
                    "type": "string"
                },
                {
                    "internalType": "string",
                    "name": "_requiredDistance",
                    "type": "string"
                },
                {
                    "internalType": "string",
                    "name": "_startHour",
                    "type": "string"
                },
                {
                    "internalType": "string",
                    "name": "_endHour",
                    "type": "string"
                }
            ],
            "name": "setEmployee",
            "outputs": [],
            "stateMutability": "nonpayable",
            "type": "function"
        },
        {
            "inputs": [
                {
                    "internalType": "string",
                    "name": "numString",
                    "type": "string"
                }
            ],
            "name": "stnum",
            "outputs": [
                {
                    "internalType": "uint256",
                    "name": "",
                    "type": "uint256"
                }
            ],
            "stateMutability": "pure",
            "type": "function"
        },
        {
            "inputs": [
                {
                    "internalType": "address payable",
                    "name": "_too",
                    "type": "address"
                },
                {
                    "internalType": "uint256",
                    "name": "_amount",
                    "type": "uint256"
                }
            ],
            "name": "transfer",
            "outputs": [],
            "stateMutability": "nonpayable",
            "type": "function"
        }
    ],
    "bytecode": "6080604052600080546001600160a01b031916331790556115fa806100256000396000f3fe6080604052600436106100e85760003560e01c80638da5cb5b1161008a578063aabe289e11610059578063aabe289e14610278578063d0e30db014610298578063e3366fed146102a0578063f0f1682e146102c257600080fd5b80638da5cb5b146101f65780639094fd5014610216578063988c0bce14610243578063a9059cbb1461025857600080fd5b80634f025396116100c65780634f0253961461015157806350bc4a981461018957806359fd0723146101b6578063689d14b9146101d657600080fd5b806312065fe0146100ed578063273884bd1461010f57806332648e091461011f575b600080fd5b3480156100f957600080fd5b50475b6040519081526020015b60405180910390f35b34801561011b57600080fd5b505b005b34801561012b57600080fd5b5061013f61013a366004610edb565b6102e2565b60405161010696959493929190610f48565b34801561015d57600080fd5b5061017161016c366004610fca565b610682565b6040516001600160a01b039091168152602001610106565b34801561019557600080fd5b506101a96101a4366004610edb565b6106ac565b6040516101069190610fe3565b3480156101c257600080fd5b5061011d6101d13660046110a9565b610775565b3480156101e257600080fd5b50600154610171906001600160a01b031681565b34801561020257600080fd5b50600054610171906001600160a01b031681565b34801561022257600080fd5b506102366102313660046111b0565b6108c7565b6040516101069190611226565b34801561024f57600080fd5b506004546100fc565b34801561026457600080fd5b5061011d610273366004611239565b610aa7565b34801561028457600080fd5b5061011d6102933660046111b0565b610b2a565b61011d610d6d565b3480156102ac57600080fd5b506102b5610dad565b6040516101069190611265565b3480156102ce57600080fd5b506100fc6102dd3660046112b2565b610e0f565b6001600160a01b038116600090815260026020819052604090912080546060928392839283928392839290916001830191908301906005840190600685019060038601908690610331906112e7565b80601f016020809104026020016040519081016040528092919081815260200182805461035d906112e7565b80156103aa5780601f1061037f576101008083540402835291602001916103aa565b820191906000526020600020905b81548152906001019060200180831161038d57829003601f168201915b505050505095508480546103bd906112e7565b80601f01602080910402602001604051908101604052809291908181526020018280546103e9906112e7565b80156104365780601f1061040b57610100808354040283529160200191610436565b820191906000526020600020905b81548152906001019060200180831161041957829003601f168201915b50505050509450838054610449906112e7565b80601f0160208091040260200160405190810160405280929190818152602001828054610475906112e7565b80156104c25780601f10610497576101008083540402835291602001916104c2565b820191906000526020600020905b8154815290600101906020018083116104a557829003601f168201915b505050505093508280546104d5906112e7565b80601f0160208091040260200160405190810160405280929190818152602001828054610501906112e7565b801561054e5780601f106105235761010080835404028352916020019161054e565b820191906000526020600020905b81548152906001019060200180831161053157829003601f168201915b50505050509250818054610561906112e7565b80601f016020809104026020016040519081016040528092919081815260200182805461058d906112e7565b80156105da5780601f106105af576101008083540402835291602001916105da565b820191906000526020600020905b8154815290600101906020018083116105bd57829003601f168201915b505050505091508080546105ed906112e7565b80601f0160208091040260200160405190810160405280929190818152602001828054610619906112e7565b80156106665780601f1061063b57610100808354040283529160200191610666565b820191906000526020600020905b81548152906001019060200180831161064957829003601f168201915b5050505050905095509550955095509550955091939550919395565b6004818154811061069257600080fd5b6000918252602090912001546001600160a01b0316905081565b6040805160208082018352606082526001600160a01b0384166000908152600382528390208351918201909352825491929091829082906106ec906112e7565b80601f0160208091040260200160405190810160405280929190818152602001828054610718906112e7565b80156107655780601f1061073a57610100808354040283529160200191610765565b820191906000526020600020905b81548152906001019060200180831161074857829003601f168201915b5050505050815250509050919050565b6000546001600160a01b0316331461078c57600080fd5b6001600160a01b03871660009081526002602052604090206107ae8782611370565b506001600160a01b03871660009081526002602052604090206001016107d48682611370565b506001600160a01b0387166000908152600260208190526040909120016107fb8582611370565b506001600160a01b03871660009081526002602052604090206003016108218482611370565b506001600160a01b03871660009081526002602052604090206005016108478382611370565b506001600160a01b038716600090815260026020526040902060060161086d8282611370565b5050600480546001810182556000919091527f8a35acfbc15ff81a39ae7d344fd709f28e8600b4aa8c65c6b64bfe7fe36bd19b0180546001600160a01b0319166001600160a01b0397909716969096179095555050505050565b606060006108d484610e0f565b905060006108e184610e0f565b6001600160a01b0387166000908152600260205260408120600501805492935090916109949190610911906112e7565b80601f016020809104026020016040519081016040528092919081815260200182805461093d906112e7565b801561098a5780601f1061095f5761010080835404028352916020019161098a565b820191906000526020600020905b81548152906001019060200180831161096d57829003601f168201915b5050505050610e0f565b6001600160a01b0388166000908152600260205260408120600601805492935090916109c49190610911906112e7565b6001600160a01b0389166000908152600260205260408120600301805492935090916109f49190610911906112e7565b9050838210158015610a065750828410155b15610a7557848110610a3f5760405180604001604052806008815260200167105c1c1c9bdd995960c21b81525095505050505050610aa0565b604051806040016040528060118152602001704f7574206f6620636f6d706c69616e636560781b81525095505050505050610aa0565b6040518060400160405280600a815260200169054696d652069732075760b41b815250955050505050505b9392505050565b6040516001600160a01b0383169082156108fc029083906000818181858888f19350505050158015610add573d6000803e3d6000fd5b50604080516001600160a01b038416815260208101839052478183015290517f7fa9aafeb8bb803d77de5d84bc2f2edbd842ca91b20cd5020aa21dfe26ab0be99181900360600190a15050565b6000610b378484846108c7565b60405167105c1c1c9bdd995960c21b60208201529091506028016040516020818303038152906040528051906020012081604051602001610b789190611430565b6040516020818303038152906040528051906020012003610c1257604080518082018252600b81526a416363657074656421212160a81b6020808301919091526001600160a01b038716600090815260039091529190912090610bdb9082611370565b50600180546001600160a01b0319166001600160a01b038616908117909155655047f5fe8c0090610c0c9082610aa7565b50610d67565b604051704f7574206f6620636f6d706c69616e636560781b60208201526031016040516020818303038152906040528051906020012081604051602001610c599190611430565b6040516020818303038152906040528051906020012003610cc25760408051808201825260118152704f7574206f6620636f6d706c69616e636560781b6020808301919091526001600160a01b038716600090815260039091529190912090610c0c9082611370565b60405169054696d652069732075760b41b6020820152602a016040516020818303038152906040528051906020012081604051602001610d029190611430565b6040516020818303038152906040528051906020012003610d6757604080518082018252600b81526a54696d652069732075702160a81b6020808301919091526001600160a01b038716600090815260039091529190912090610d659082611370565b505b50505050565b60408051338152346020820152478183015290517f90890809c654f11d6e72a28fa60149770a0d11ec6c92319d6ceb2bb0a4ea1a159181900360600190a1565b60606004805480602002602001604051908101604052809291908181526020018280548015610e0557602002820191906000526020600020905b81546001600160a01b03168152600190910190602001808311610de7575b5050505050905090565b60008082815b8151811015610eaa576000818351610e2d9190611462565b90506000838381518110610e4357610e4361147b565b01602001516001600160f81b03198116915060f81c6000610e65603083611462565b9050610e72600185611462565b610e7d90600a611575565b610e879082611581565b610e919088611598565b9650505050508080610ea2906115ab565b915050610e15565b50909392505050565b6001600160a01b0381168114610ec857600080fd5b50565b8035610ed681610eb3565b919050565b600060208284031215610eed57600080fd5b8135610aa081610eb3565b60005b83811015610f13578181015183820152602001610efb565b50506000910152565b60008151808452610f34816020860160208601610ef8565b601f01601f19169290920160200192915050565b60c081526000610f5b60c0830189610f1c565b8281036020840152610f6d8189610f1c565b90508281036040840152610f818188610f1c565b90508281036060840152610f958187610f1c565b90508281036080840152610fa98186610f1c565b905082810360a0840152610fbd8185610f1c565b9998505050505050505050565b600060208284031215610fdc57600080fd5b5035919050565b6020815260008251602080840152610ffe6040840182610f1c565b949350505050565b634e487b7160e01b600052604160045260246000fd5b600082601f83011261102d57600080fd5b813567ffffffffffffffff8082111561104857611048611006565b604051601f8301601f19908116603f0116810190828211818310171561107057611070611006565b8160405283815286602085880101111561108957600080fd5b836020870160208301376000602085830101528094505050505092915050565b600080600080600080600060e0888a0312156110c457600080fd5b6110cd88610ecb565b9650602088013567ffffffffffffffff808211156110ea57600080fd5b6110f68b838c0161101c565b975060408a013591508082111561110c57600080fd5b6111188b838c0161101c565b965060608a013591508082111561112e57600080fd5b61113a8b838c0161101c565b955060808a013591508082111561115057600080fd5b61115c8b838c0161101c565b945060a08a013591508082111561117257600080fd5b61117e8b838c0161101c565b935060c08a013591508082111561119457600080fd5b506111a18a828b0161101c565b91505092959891949750929550565b6000806000606084860312156111c557600080fd5b83356111d081610eb3565b9250602084013567ffffffffffffffff808211156111ed57600080fd5b6111f98783880161101c565b9350604086013591508082111561120f57600080fd5b5061121c8682870161101c565b9150509250925092565b602081526000610aa06020830184610f1c565b6000806040838503121561124c57600080fd5b823561125781610eb3565b946020939093013593505050565b6020808252825182820181905260009190848201906040850190845b818110156112a65783516001600160a01b031683529284019291840191600101611281565b50909695505050505050565b6000602082840312156112c457600080fd5b813567ffffffffffffffff8111156112db57600080fd5b610ffe8482850161101c565b600181811c908216806112fb57607f821691505b60208210810361131b57634e487b7160e01b600052602260045260246000fd5b50919050565b601f82111561136b57600081815260208120601f850160051c810160208610156113485750805b601f850160051c820191505b8181101561136757828155600101611354565b5050505b505050565b815167ffffffffffffffff81111561138a5761138a611006565b61139e8161139884546112e7565b84611321565b602080601f8311600181146113d357600084156113bb5750858301515b600019600386901b1c1916600185901b178555611367565b600085815260208120601f198616915b82811015611402578886015182559484019460019091019084016113e3565b50858210156114205787850151600019600388901b60f8161c191681555b5050505050600190811b01905550565b60008251611442818460208701610ef8565b9190910192915050565b634e487b7160e01b600052601160045260246000fd5b818103818111156114755761147561144c565b92915050565b634e487b7160e01b600052603260045260246000fd5b600181815b808511156114cc5781600019048211156114b2576114b261144c565b808516156114bf57918102915b93841c9390800290611496565b509250929050565b6000826114e357506001611475565b816114f057506000611475565b816001811461150657600281146115105761152c565b6001915050611475565b60ff8411156115215761152161144c565b50506001821b611475565b5060208310610133831016604e8410600b841016171561154f575081810a611475565b6115598383611491565b806000190482111561156d5761156d61144c565b029392505050565b6000610aa083836114d4565b80820281158282048414176114755761147561144c565b808201808211156114755761147561144c565b6000600182016115bd576115bd61144c565b506001019056fea26469706673582212202dabcd7a985e1e5c335ff4a54c09dd3becd46d881af8496f2a9930e389bcb30064736f6c63430008110033",
    "sourcePath": "/home/r/Documents/10academy/Week10/Refund-by-location-Ethereum/hardhat/contracts/Employer.sol",
    "compiler": {
        "name": "solc",
        "version": "0.8.17+commit.8df45f5f"
    },
    "functionHashes": {
        "_to()": "689d14b9",
        "contractCondition(address,string,string)": "aabe289e",
        "countEmployees()": "988c0bce",
        "deposit()": "d0e30db0",
        "employeeAccts(uint256)": "4f025396",
        "getAllEmployees()": "e3366fed",
        "getBalance()": "12065fe0",
        "getEmployee(address)": "32648e09",
        "getResults(address)": "50bc4a98",
        "notPayable()": "273884bd",
        "owner()": "8da5cb5b",
        "setContract(address,string,string)": "9094fd50",
        "setEmployee(address,string,string,string,string,string,string)": "59fd0723",
        "stnum(string)": "f0f1682e",
        "transfer(address,uint256)": "a9059cbb"
    },
    "gasEstimates": {
        "creation": {
            "codeDepositCost": "1125200",
            "executionCost": "25378",
            "totalCost": "1150578"
        },
        "external": {
            "_to()": "2426",
            "contractCondition(address,string,string)": "infinite",
            "countEmployees()": "2348",
            "deposit()": "1772",
            "employeeAccts(uint256)": "4637",
            "getAllEmployees()": "infinite",
            "getBalance()": "196",
            "getEmployee(address)": "infinite",
            "getResults(address)": "infinite",
            "notPayable()": "169",
            "owner()": "2360",
            "setContract(address,string,string)": "infinite",
            "setEmployee(address,string,string,string,string,string,string)": "infinite",
            "stnum(string)": "infinite",
            "transfer(address,uint256)": "infinite"
        }
    }
}