{
    "contractName": "Employer",
    "abi": [
        {
            "inputs": [],
            "stateMutability": "payable",
            "type": "constructor"
        },
        {
            "anonymous": false,
            "inputs": [
                {
                    "indexed": false,
                    "internalType": "address",
                    "name": "sender",
                    "type": "address"
                },
                {
                    "indexed": false,
                    "internalType": "uint256",
                    "name": "amount",
                    "type": "uint256"
                },
                {
                    "indexed": false,
                    "internalType": "uint256",
                    "name": "balance",
                    "type": "uint256"
                }
            ],
            "name": "Deposit",
            "type": "event"
        },
        {
            "anonymous": false,
            "inputs": [
                {
                    "indexed": false,
                    "internalType": "address",
                    "name": "to",
                    "type": "address"
                },
                {
                    "indexed": false,
                    "internalType": "uint256",
                    "name": "amount",
                    "type": "uint256"
                },
                {
                    "indexed": false,
                    "internalType": "uint256",
                    "name": "balance",
                    "type": "uint256"
                }
            ],
            "name": "Transfer",
            "type": "event"
        },
        {
            "anonymous": false,
            "inputs": [
                {
                    "indexed": false,
                    "internalType": "uint256",
                    "name": "amount",
                    "type": "uint256"
                },
                {
                    "indexed": false,
                    "internalType": "uint256",
                    "name": "balance",
                    "type": "uint256"
                }
            ],
            "name": "Withdraw",
            "type": "event"
        },
        {
            "inputs": [
                {
                    "internalType": "address",
                    "name": "_address",
                    "type": "address"
                },
                {
                    "internalType": "string",
                    "name": "distance",
                    "type": "string"
                },
                {
                    "internalType": "string",
                    "name": "fetchedHour",
                    "type": "string"
                }
            ],
            "name": "contractCondition",
            "outputs": [],
            "stateMutability": "nonpayable",
            "type": "function"
        },
        {
            "inputs": [],
            "name": "countEmployees",
            "outputs": [
                {
                    "internalType": "uint256",
                    "name": "",
                    "type": "uint256"
                }
            ],
            "stateMutability": "view",
            "type": "function"
        },
        {
            "inputs": [],
            "name": "deposit",
            "outputs": [],
            "stateMutability": "payable",
            "type": "function"
        },
        {
            "inputs": [
                {
                    "internalType": "uint256",
                    "name": "",
                    "type": "uint256"
                }
            ],
            "name": "employeeAccts",
            "outputs": [
                {
                    "internalType": "address",
                    "name": "",
                    "type": "address"
                }
            ],
            "stateMutability": "view",
            "type": "function"
        },
        {
            "inputs": [],
            "name": "getAllEmployees",
            "outputs": [
                {
                    "internalType": "address[]",
                    "name": "",
                    "type": "address[]"
                }
            ],
            "stateMutability": "view",
            "type": "function"
        },
        {
            "inputs": [],
            "name": "getBalance",
            "outputs": [
                {
                    "internalType": "uint256",
                    "name": "",
                    "type": "uint256"
                }
            ],
            "stateMutability": "view",
            "type": "function"
        },
        {
            "inputs": [
                {
                    "internalType": "address",
                    "name": "_address",
                    "type": "address"
                }
            ],
            "name": "getEmployee",
            "outputs": [
                {
                    "internalType": "string",
                    "name": "",
                    "type": "string"
                },
                {
                    "internalType": "string",
                    "name": "",
                    "type": "string"
                },
                {
                    "internalType": "string",
                    "name": "",
                    "type": "string"
                },
                {
                    "internalType": "string",
                    "name": "",
                    "type": "string"
                },
                {
                    "internalType": "string",
                    "name": "",
                    "type": "string"
                },
                {
                    "internalType": "string",
                    "name": "",
                    "type": "string"
                }
            ],
            "stateMutability": "view",
            "type": "function"
        },
        {
            "inputs": [],
            "name": "getOwedAmount",
            "outputs": [
                {
                    "internalType": "uint256",
                    "name": "",
                    "type": "uint256"
                }
            ],
            "stateMutability": "view",
            "type": "function"
        },
        {
            "inputs": [
                {
                    "internalType": "address",
                    "name": "_address",
                    "type": "address"
                }
            ],
            "name": "getResults",
            "outputs": [
                {
                    "components": [
                        {
                            "internalType": "string",
                            "name": "accept",
                            "type": "string"
                        },
                        {
                            "internalType": "string",
                            "name": "decline",
                            "type": "string"
                        }
                    ],
                    "internalType": "struct Employer.Output",
                    "name": "",
                    "type": "tuple"
                }
            ],
            "stateMutability": "view",
            "type": "function"
        },
        {
            "inputs": [],
            "name": "notPayable",
            "outputs": [],
            "stateMutability": "nonpayable",
            "type": "function"
        },
        {
            "inputs": [],
            "name": "owner",
            "outputs": [
                {
                    "internalType": "address payable",
                    "name": "",
                    "type": "address"
                }
            ],
            "stateMutability": "view",
            "type": "function"
        },
        {
            "inputs": [
                {
                    "internalType": "address",
                    "name": "_address",
                    "type": "address"
                },
                {
                    "internalType": "string",
                    "name": "distance",
                    "type": "string"
                },
                {
                    "internalType": "string",
                    "name": "fetchedHour",
                    "type": "string"
                }
            ],
            "name": "setContract",
            "outputs": [
                {
                    "internalType": "string",
                    "name": "",
                    "type": "string"
                }
            ],
            "stateMutability": "view",
            "type": "function"
        },
        {
            "inputs": [
                {
                    "internalType": "address",
                    "name": "_address",
                    "type": "address"
                },
                {
                    "internalType": "string",
                    "name": "_empName",
                    "type": "string"
                },
                {
                    "internalType": "string",
                    "name": "_long",
                    "type": "string"
                },
                {
                    "internalType": "string",
                    "name": "_lat",
                    "type": "string"
                },
                {
                    "internalType": "string",
                    "name": "_requiredDistance",
                    "type": "string"
                },
                {
                    "internalType": "string",
                    "name": "_startHour",
                    "type": "string"
                },
                {
                    "internalType": "string",
                    "name": "_endHour",
                    "type": "string"
                }
            ],
            "name": "setEmployee",
            "outputs": [],
            "stateMutability": "nonpayable",
            "type": "function"
        },
        {
            "inputs": [
                {
                    "internalType": "string",
                    "name": "numString",
                    "type": "string"
                }
            ],
            "name": "stnum",
            "outputs": [
                {
                    "internalType": "uint256",
                    "name": "",
                    "type": "uint256"
                }
            ],
            "stateMutability": "pure",
            "type": "function"
        },
        {
            "inputs": [
                {
                    "internalType": "address payable",
                    "name": "_to",
                    "type": "address"
                },
                {
                    "internalType": "uint256",
                    "name": "_amount",
                    "type": "uint256"
                }
            ],
            "name": "transfer",
            "outputs": [],
            "stateMutability": "nonpayable",
            "type": "function"
        },
        {
            "inputs": [
                {
                    "internalType": "uint256",
                    "name": "_amount",
                    "type": "uint256"
                }
            ],
            "name": "withdraw",
            "outputs": [],
            "stateMutability": "nonpayable",
            "type": "function"
        }
    ],
    "bytecode": "608060405266038d7ea4c68000600455600080546001600160a01b0319163317905561170b806100306000396000f3fe6080604052600436106100f35760003560e01c80639094fd501161008a578063aabe289e11610059578063aabe289e14610298578063d0e30db0146102b8578063e3366fed146102c0578063f0f1682e146102e257600080fd5b80639094fd5014610221578063926349161461024e578063988c0bce14610263578063a9059cbb1461027857600080fd5b80634f025396116100c65780634f0253961461017c57806350bc4a98146101b457806359fd0723146101e15780638da5cb5b1461020157600080fd5b806312065fe0146100f8578063273884bd1461011a5780632e1a7d4d1461012a57806332648e091461014a575b600080fd5b34801561010457600080fd5b50475b6040519081526020015b60405180910390f35b34801561012657600080fd5b505b005b34801561013657600080fd5b50610128610145366004610f95565b610302565b34801561015657600080fd5b5061016a610165366004610fd6565b6103c2565b60405161011196959493929190611043565b34801561018857600080fd5b5061019c610197366004610f95565b610761565b6040516001600160a01b039091168152602001610111565b3480156101c057600080fd5b506101d46101cf366004610fd6565b61078b565b60405161011191906110c5565b3480156101ed57600080fd5b506101286101fc3660046111aa565b6108eb565b34801561020d57600080fd5b5060005461019c906001600160a01b031681565b34801561022d57600080fd5b5061024161023c3660046112b1565b610a3d565b6040516101119190611327565b34801561025a57600080fd5b50600454610107565b34801561026f57600080fd5b50600354610107565b34801561028457600080fd5b5061012861029336600461133a565b610c23565b3480156102a457600080fd5b506101286102b33660046112b1565b610cec565b610128610e4f565b3480156102cc57600080fd5b506102d5610e8f565b6040516101119190611366565b3480156102ee57600080fd5b506101076102fd3660046113b3565b610ef1565b6000546001600160a01b0316331461034d5760405162461bcd60e51b81526020600482015260096024820152682737ba1037bbb732b960b91b60448201526064015b60405180910390fd5b600080546040516001600160a01b039091169183156108fc02918491818181858888f19350505050158015610386573d6000803e3d6000fd5b50604080518281524760208201527f56ca301a9219608c91e7bcee90e083c19671d2cdcc96752c7af291cee5f9c8c8910160405180910390a150565b6001600160a01b0381166000908152600160208190526040909120805460609283928392839283928392909182019060028301906005840190600685019060038601908690610410906113f0565b80601f016020809104026020016040519081016040528092919081815260200182805461043c906113f0565b80156104895780601f1061045e57610100808354040283529160200191610489565b820191906000526020600020905b81548152906001019060200180831161046c57829003601f168201915b5050505050955084805461049c906113f0565b80601f01602080910402602001604051908101604052809291908181526020018280546104c8906113f0565b80156105155780601f106104ea57610100808354040283529160200191610515565b820191906000526020600020905b8154815290600101906020018083116104f857829003601f168201915b50505050509450838054610528906113f0565b80601f0160208091040260200160405190810160405280929190818152602001828054610554906113f0565b80156105a15780601f10610576576101008083540402835291602001916105a1565b820191906000526020600020905b81548152906001019060200180831161058457829003601f168201915b505050505093508280546105b4906113f0565b80601f01602080910402602001604051908101604052809291908181526020018280546105e0906113f0565b801561062d5780601f106106025761010080835404028352916020019161062d565b820191906000526020600020905b81548152906001019060200180831161061057829003601f168201915b50505050509250818054610640906113f0565b80601f016020809104026020016040519081016040528092919081815260200182805461066c906113f0565b80156106b95780601f1061068e576101008083540402835291602001916106b9565b820191906000526020600020905b81548152906001019060200180831161069c57829003601f168201915b505050505091508080546106cc906113f0565b80601f01602080910402602001604051908101604052809291908181526020018280546106f8906113f0565b80156107455780601f1061071a57610100808354040283529160200191610745565b820191906000526020600020905b81548152906001019060200180831161072857829003601f168201915b5050505050905095509550955095509550955091939550919395565b6003818154811061077157600080fd5b6000918252602090912001546001600160a01b0316905081565b60408051808201909152606080825260208201526001600160a01b0382166000908152600260205260409081902081518083019092528054829082906107d0906113f0565b80601f01602080910402602001604051908101604052809291908181526020018280546107fc906113f0565b80156108495780601f1061081e57610100808354040283529160200191610849565b820191906000526020600020905b81548152906001019060200180831161082c57829003601f168201915b50505050508152602001600182018054610862906113f0565b80601f016020809104026020016040519081016040528092919081815260200182805461088e906113f0565b80156108db5780601f106108b0576101008083540402835291602001916108db565b820191906000526020600020905b8154815290600101906020018083116108be57829003601f168201915b5050505050815250509050919050565b6000546001600160a01b0316331461090257600080fd5b6001600160a01b03871660009081526001602052604090206109248782611479565b506001600160a01b03871660009081526001602081905260409091200161094b8682611479565b506001600160a01b03871660009081526001602052604090206002016109718582611479565b506001600160a01b03871660009081526001602052604090206003016109978482611479565b506001600160a01b03871660009081526001602052604090206005016109bd8382611479565b506001600160a01b03871660009081526001602052604090206006016109e38282611479565b5050600380546001810182556000919091527fc2575a0e9e593c00f959f8c92f12db2869c3395a3b0502d05e2516446f71f85b0180546001600160a01b0319166001600160a01b0397909716969096179095555050505050565b60606000610a4a84610ef1565b90506000610a5784610ef1565b6001600160a01b038716600090815260016020526040812060050180549293509091610b0a9190610a87906113f0565b80601f0160208091040260200160405190810160405280929190818152602001828054610ab3906113f0565b8015610b005780601f10610ad557610100808354040283529160200191610b00565b820191906000526020600020905b815481529060010190602001808311610ae357829003601f168201915b5050505050610ef1565b6001600160a01b038816600090815260016020526040812060060180549293509091610b3a9190610a87906113f0565b6001600160a01b038916600090815260016020526040812060030180549293509091610b6a9190610a87906113f0565b9050838210158015610b7c5750828410155b610bb65760405162461bcd60e51b815260206004820152600b60248201526a6f7574206f662074696d6560a81b6044820152606401610344565b848110610bea5760405180604001604052806008815260200167105c1c1c9bdd995960c21b81525095505050505050610c1c565b604051806040016040528060118152602001704f7574206f6620636f6d706c69616e636560781b815250955050505050505b9392505050565b6000546001600160a01b03163314610c695760405162461bcd60e51b81526020600482015260096024820152682737ba1037bbb732b960b91b6044820152606401610344565b6040516001600160a01b0383169082156108fc029083906000818181858888f19350505050158015610c9f573d6000803e3d6000fd5b50604080516001600160a01b038416815260208101839052478183015290517f7fa9aafeb8bb803d77de5d84bc2f2edbd842ca91b20cd5020aa21dfe26ab0be99181900360600190a15050565b6000610cf9848484610a3d565b60405167105c1c1c9bdd995960c21b60208201529091506028016040516020818303038152906040528051906020012081604051602001610d3a9190611539565b6040516020818303038152906040528051906020012003610d9e5760408051808201825260068152651858d8d95c1d60d21b6020808301919091526001600160a01b038716600090815260029091529190912090610d989082611479565b50610e49565b604051704f7574206f6620636f6d706c69616e636560781b60208201526031016040516020818303038152906040528051906020012081604051602001610de59190611539565b6040516020818303038152906040528051906020012003610e495760408051808201825260078152666465636c696e6560c81b6020808301919091526001600160a01b038716600090815260029091529190912060010190610e479082611479565b505b50505050565b60408051338152346020820152478183015290517f90890809c654f11d6e72a28fa60149770a0d11ec6c92319d6ceb2bb0a4ea1a159181900360600190a1565b60606003805480602002602001604051908101604052809291908181526020018280548015610ee757602002820191906000526020600020905b81546001600160a01b03168152600190910190602001808311610ec9575b5050505050905090565b60008082815b8151811015610f8c576000818351610f0f919061156b565b90506000838381518110610f2557610f25611584565b01602001516001600160f81b03198116915060f81c6000610f4760308361156b565b9050610f5460018561156b565b610f5f90600a61167e565b610f69908261168a565b610f7390886116a9565b9650505050508080610f84906116bc565b915050610ef7565b50909392505050565b600060208284031215610fa757600080fd5b5035919050565b6001600160a01b0381168114610fc357600080fd5b50565b8035610fd181610fae565b919050565b600060208284031215610fe857600080fd5b8135610c1c81610fae565b60005b8381101561100e578181015183820152602001610ff6565b50506000910152565b6000815180845261102f816020860160208601610ff3565b601f01601f19169290920160200192915050565b60c08152600061105660c0830189611017565b82810360208401526110688189611017565b9050828103604084015261107c8188611017565b905082810360608401526110908187611017565b905082810360808401526110a48186611017565b905082810360a08401526110b88185611017565b9998505050505050505050565b6020815260008251604060208401526110e16060840182611017565b90506020840151601f198483030160408501526110fe8282611017565b95945050505050565b634e487b7160e01b600052604160045260246000fd5b600082601f83011261112e57600080fd5b813567ffffffffffffffff8082111561114957611149611107565b604051601f8301601f19908116603f0116810190828211818310171561117157611171611107565b8160405283815286602085880101111561118a57600080fd5b836020870160208301376000602085830101528094505050505092915050565b600080600080600080600060e0888a0312156111c557600080fd5b6111ce88610fc6565b9650602088013567ffffffffffffffff808211156111eb57600080fd5b6111f78b838c0161111d565b975060408a013591508082111561120d57600080fd5b6112198b838c0161111d565b965060608a013591508082111561122f57600080fd5b61123b8b838c0161111d565b955060808a013591508082111561125157600080fd5b61125d8b838c0161111d565b945060a08a013591508082111561127357600080fd5b61127f8b838c0161111d565b935060c08a013591508082111561129557600080fd5b506112a28a828b0161111d565b91505092959891949750929550565b6000806000606084860312156112c657600080fd5b83356112d181610fae565b9250602084013567ffffffffffffffff808211156112ee57600080fd5b6112fa8783880161111d565b9350604086013591508082111561131057600080fd5b5061131d8682870161111d565b9150509250925092565b602081526000610c1c6020830184611017565b6000806040838503121561134d57600080fd5b823561135881610fae565b946020939093013593505050565b6020808252825182820181905260009190848201906040850190845b818110156113a75783516001600160a01b031683529284019291840191600101611382565b50909695505050505050565b6000602082840312156113c557600080fd5b813567ffffffffffffffff8111156113dc57600080fd5b6113e88482850161111d565b949350505050565b600181811c9082168061140457607f821691505b60208210810361142457634e487b7160e01b600052602260045260246000fd5b50919050565b601f82111561147457600081815260208120601f850160051c810160208610156114515750805b601f850160051c820191505b818110156114705782815560010161145d565b5050505b505050565b815167ffffffffffffffff81111561149357611493611107565b6114a7816114a184546113f0565b8461142a565b602080601f8311600181146114dc57600084156114c45750858301515b600019600386901b1c1916600185901b178555611470565b600085815260208120601f198616915b8281101561150b578886015182559484019460019091019084016114ec565b50858210156115295787850151600019600388901b60f8161c191681555b5050505050600190811b01905550565b6000825161154b818460208701610ff3565b9190910192915050565b634e487b7160e01b600052601160045260246000fd5b8181038181111561157e5761157e611555565b92915050565b634e487b7160e01b600052603260045260246000fd5b600181815b808511156115d55781600019048211156115bb576115bb611555565b808516156115c857918102915b93841c939080029061159f565b509250929050565b6000826115ec5750600161157e565b816115f95750600061157e565b816001811461160f576002811461161957611635565b600191505061157e565b60ff84111561162a5761162a611555565b50506001821b61157e565b5060208310610133831016604e8410600b8410161715611658575081810a61157e565b611662838361159a565b806000190482111561167657611676611555565b029392505050565b6000610c1c83836115dd565b60008160001904831182151516156116a4576116a4611555565b500290565b8082018082111561157e5761157e611555565b6000600182016116ce576116ce611555565b506001019056fea26469706673582212206e469707e3967760131b58cf60490b7d8e799a030bc6d684a9237188f0f3634764736f6c63430008100033",
    "sourcePath": "/home/r/Documents/Week10/Refund-by-location-Ethereum/hardhat/contracts/Employer.sol",
    "compiler": {
        "name": "solc",
        "version": "0.8.16+commit.07a7930e"
    },
    "functionHashes": {
        "contractCondition(address,string,string)": "aabe289e",
        "countEmployees()": "988c0bce",
        "deposit()": "d0e30db0",
        "employeeAccts(uint256)": "4f025396",
        "getAllEmployees()": "e3366fed",
        "getBalance()": "12065fe0",
        "getEmployee(address)": "32648e09",
        "getOwedAmount()": "92634916",
        "getResults(address)": "50bc4a98",
        "notPayable()": "273884bd",
        "owner()": "8da5cb5b",
        "setContract(address,string,string)": "9094fd50",
        "setEmployee(address,string,string,string,string,string,string)": "59fd0723",
        "stnum(string)": "f0f1682e",
        "transfer(address,uint256)": "a9059cbb",
        "withdraw(uint256)": "2e1a7d4d"
    },
    "gasEstimates": {
        "creation": {
            "codeDepositCost": "1179800",
            "executionCost": "47544",
            "totalCost": "1227344"
        },
        "external": {
            "contractCondition(address,string,string)": "infinite",
            "countEmployees()": "2348",
            "deposit()": "1772",
            "employeeAccts(uint256)": "4637",
            "getAllEmployees()": "infinite",
            "getBalance()": "196",
            "getEmployee(address)": "infinite",
            "getOwedAmount()": "2326",
            "getResults(address)": "infinite",
            "notPayable()": "169",
            "owner()": "2426",
            "setContract(address,string,string)": "infinite",
            "setEmployee(address,string,string,string,string,string,string)": "infinite",
            "stnum(string)": "infinite",
            "transfer(address,uint256)": "infinite",
            "withdraw(uint256)": "infinite"
        }
    }
}