{
  "_format": "hh-sol-artifact-1",
  "contractName": "Employer",
  "sourceName": "contracts/Employer.sol",
  "abi": [
    {
      "inputs": [],
      "stateMutability": "payable",
      "type": "constructor"
    },
    {
      "anonymous": false,
      "inputs": [
        {
          "indexed": false,
          "internalType": "address",
          "name": "sender",
          "type": "address"
        },
        {
          "indexed": false,
          "internalType": "uint256",
          "name": "amount",
          "type": "uint256"
        },
        {
          "indexed": false,
          "internalType": "uint256",
          "name": "balance",
          "type": "uint256"
        }
      ],
      "name": "Deposit",
      "type": "event"
    },
    {
      "anonymous": false,
      "inputs": [
        {
          "indexed": false,
          "internalType": "address",
          "name": "to",
          "type": "address"
        },
        {
          "indexed": false,
          "internalType": "uint256",
          "name": "amount",
          "type": "uint256"
        },
        {
          "indexed": false,
          "internalType": "uint256",
          "name": "balance",
          "type": "uint256"
        }
      ],
      "name": "Transfer",
      "type": "event"
    },
    {
      "anonymous": false,
      "inputs": [
        {
          "indexed": false,
          "internalType": "uint256",
          "name": "amount",
          "type": "uint256"
        },
        {
          "indexed": false,
          "internalType": "uint256",
          "name": "balance",
          "type": "uint256"
        }
      ],
      "name": "Withdraw",
      "type": "event"
    },
    {
      "inputs": [
        {
          "internalType": "address",
          "name": "_address",
          "type": "address"
        },
        {
          "internalType": "string",
          "name": "distance",
          "type": "string"
        },
        {
          "internalType": "string",
          "name": "fetchedHour",
          "type": "string"
        }
      ],
      "name": "contractCondition",
      "outputs": [],
      "stateMutability": "nonpayable",
      "type": "function"
    },
    {
      "inputs": [],
      "name": "countEmployees",
      "outputs": [
        {
          "internalType": "uint256",
          "name": "",
          "type": "uint256"
        }
      ],
      "stateMutability": "view",
      "type": "function"
    },
    {
      "inputs": [],
      "name": "deposit",
      "outputs": [],
      "stateMutability": "payable",
      "type": "function"
    },
    {
      "inputs": [
        {
          "internalType": "uint256",
          "name": "",
          "type": "uint256"
        }
      ],
      "name": "employeeAccts",
      "outputs": [
        {
          "internalType": "address",
          "name": "",
          "type": "address"
        }
      ],
      "stateMutability": "view",
      "type": "function"
    },
    {
      "inputs": [],
      "name": "getAllEmployees",
      "outputs": [
        {
          "internalType": "address[]",
          "name": "",
          "type": "address[]"
        }
      ],
      "stateMutability": "view",
      "type": "function"
    },
    {
      "inputs": [],
      "name": "getBalance",
      "outputs": [
        {
          "internalType": "uint256",
          "name": "",
          "type": "uint256"
        }
      ],
      "stateMutability": "view",
      "type": "function"
    },
    {
      "inputs": [
        {
          "internalType": "address",
          "name": "_address",
          "type": "address"
        }
      ],
      "name": "getEmployee",
      "outputs": [
        {
          "internalType": "string",
          "name": "",
          "type": "string"
        },
        {
          "internalType": "string",
          "name": "",
          "type": "string"
        },
        {
          "internalType": "string",
          "name": "",
          "type": "string"
        },
        {
          "internalType": "string",
          "name": "",
          "type": "string"
        },
        {
          "internalType": "string",
          "name": "",
          "type": "string"
        },
        {
          "internalType": "string",
          "name": "",
          "type": "string"
        }
      ],
      "stateMutability": "view",
      "type": "function"
    },
    {
      "inputs": [],
      "name": "getOwedAmount",
      "outputs": [
        {
          "internalType": "uint256",
          "name": "",
          "type": "uint256"
        }
      ],
      "stateMutability": "view",
      "type": "function"
    },
    {
      "inputs": [
        {
          "internalType": "address",
          "name": "_address",
          "type": "address"
        }
      ],
      "name": "getResults",
      "outputs": [
        {
          "components": [
            {
              "internalType": "string",
              "name": "accept",
              "type": "string"
            },
            {
              "internalType": "string",
              "name": "decline",
              "type": "string"
            }
          ],
          "internalType": "struct Employer.Output",
          "name": "",
          "type": "tuple"
        }
      ],
      "stateMutability": "view",
      "type": "function"
    },
    {
      "inputs": [],
      "name": "notPayable",
      "outputs": [],
      "stateMutability": "nonpayable",
      "type": "function"
    },
    {
      "inputs": [],
      "name": "owner",
      "outputs": [
        {
          "internalType": "address payable",
          "name": "",
          "type": "address"
        }
      ],
      "stateMutability": "view",
      "type": "function"
    },
    {
      "inputs": [
        {
          "internalType": "address",
          "name": "_address",
          "type": "address"
        },
        {
          "internalType": "string",
          "name": "distance",
          "type": "string"
        },
        {
          "internalType": "string",
          "name": "fetchedHour",
          "type": "string"
        }
      ],
      "name": "setContract",
      "outputs": [
        {
          "internalType": "string",
          "name": "",
          "type": "string"
        }
      ],
      "stateMutability": "view",
      "type": "function"
    },
    {
      "inputs": [
        {
          "internalType": "address",
          "name": "_address",
          "type": "address"
        },
        {
          "internalType": "string",
          "name": "_empName",
          "type": "string"
        },
        {
          "internalType": "string",
          "name": "_long",
          "type": "string"
        },
        {
          "internalType": "string",
          "name": "_lat",
          "type": "string"
        },
        {
          "internalType": "string",
          "name": "_requiredDistance",
          "type": "string"
        },
        {
          "internalType": "string",
          "name": "_startHour",
          "type": "string"
        },
        {
          "internalType": "string",
          "name": "_endHour",
          "type": "string"
        }
      ],
      "name": "setEmployee",
      "outputs": [],
      "stateMutability": "nonpayable",
      "type": "function"
    },
    {
      "inputs": [
        {
          "internalType": "string",
          "name": "numString",
          "type": "string"
        }
      ],
      "name": "stnum",
      "outputs": [
        {
          "internalType": "uint256",
          "name": "",
          "type": "uint256"
        }
      ],
      "stateMutability": "pure",
      "type": "function"
    },
    {
      "inputs": [
        {
          "internalType": "address payable",
          "name": "_to",
          "type": "address"
        },
        {
          "internalType": "uint256",
          "name": "_amount",
          "type": "uint256"
        }
      ],
      "name": "transfer",
      "outputs": [],
      "stateMutability": "nonpayable",
      "type": "function"
    },
    {
      "inputs": [
        {
          "internalType": "uint256",
          "name": "_amount",
          "type": "uint256"
        }
      ],
      "name": "withdraw",
      "outputs": [],
      "stateMutability": "nonpayable",
      "type": "function"
    }
  ],
  "bytecode": "0x608060405266038d7ea4c68000600455336000806101000a81548173ffffffffffffffffffffffffffffffffffffffff021916908373ffffffffffffffffffffffffffffffffffffffff1602179055506125418061005e6000396000f3fe6080604052600436106100f35760003560e01c80639094fd501161008a578063aabe289e11610059578063aabe289e1461032f578063d0e30db014610358578063e3366fed14610362578063f0f1682e1461038d576100f3565b80639094fd501461027357806392634916146102b0578063988c0bce146102db578063a9059cbb14610306576100f3565b80634f025396116100c65780634f025396146101a557806350bc4a98146101e257806359fd07231461021f5780638da5cb5b14610248576100f3565b806312065fe0146100f8578063273884bd146101235780632e1a7d4d1461013a57806332648e0914610163575b600080fd5b34801561010457600080fd5b5061010d6103ca565b60405161011a9190611f6f565b60405180910390f35b34801561012f57600080fd5b506101386103d2565b005b34801561014657600080fd5b50610161600480360381019061015c9190611a88565b6103d4565b005b34801561016f57600080fd5b5061018a60048036038101906101859190611835565b610505565b60405161019c96959493929190611e82565b60405180910390f35b3480156101b157600080fd5b506101cc60048036038101906101c79190611a88565b6109f7565b6040516101d99190611d9a565b60405180910390f35b3480156101ee57600080fd5b5061020960048036038101906102049190611835565b610a36565b6040516102169190611f4d565b60405180910390f35b34801561022b57600080fd5b5061024660048036038101906102419190611919565b610bb3565b005b34801561025457600080fd5b5061025d610e81565b60405161026a9190611db5565b60405180910390f35b34801561027f57600080fd5b5061029a6004803603810190610295919061189a565b610ea5565b6040516102a79190611e60565b60405180910390f35b3480156102bc57600080fd5b506102c5611223565b6040516102d29190611f6f565b60405180910390f35b3480156102e757600080fd5b506102f061122d565b6040516102fd9190611f6f565b60405180910390f35b34801561031257600080fd5b5061032d6004803603810190610328919061185e565b61123a565b005b34801561033b57600080fd5b506103566004803603810190610351919061189a565b61134e565b005b610360611526565b005b34801561036e57600080fd5b50610377611563565b6040516103849190611e3e565b60405180910390f35b34801561039957600080fd5b506103b460048036038101906103af9190611a47565b6115f1565b6040516103c19190611f6f565b60405180910390f35b600047905090565b565b60008054906101000a900473ffffffffffffffffffffffffffffffffffffffff1673ffffffffffffffffffffffffffffffffffffffff163373ffffffffffffffffffffffffffffffffffffffff1614610462576040517f08c379a000000000000000000000000000000000000000000000000000000000815260040161045990611f2d565b60405180910390fd5b60008054906101000a900473ffffffffffffffffffffffffffffffffffffffff1673ffffffffffffffffffffffffffffffffffffffff166108fc829081150290604051600060405180830381858888f193505050501580156104c8573d6000803e3d6000fd5b507f56ca301a9219608c91e7bcee90e083c19671d2cdcc96752c7af291cee5f9c8c881476040516104fa929190611f8a565b60405180910390a150565b606080606080606080600160008873ffffffffffffffffffffffffffffffffffffffff1673ffffffffffffffffffffffffffffffffffffffff168152602001908152602001600020600001600160008973ffffffffffffffffffffffffffffffffffffffff1673ffffffffffffffffffffffffffffffffffffffff168152602001908152602001600020600101600160008a73ffffffffffffffffffffffffffffffffffffffff1673ffffffffffffffffffffffffffffffffffffffff168152602001908152602001600020600201600160008b73ffffffffffffffffffffffffffffffffffffffff1673ffffffffffffffffffffffffffffffffffffffff168152602001908152602001600020600501600160008c73ffffffffffffffffffffffffffffffffffffffff1673ffffffffffffffffffffffffffffffffffffffff168152602001908152602001600020600601600160008d73ffffffffffffffffffffffffffffffffffffffff1673ffffffffffffffffffffffffffffffffffffffff1681526020019081526020016000206003018580546106a6906123a0565b80601f01602080910402602001604051908101604052809291908181526020018280546106d2906123a0565b801561071f5780601f106106f45761010080835404028352916020019161071f565b820191906000526020600020905b81548152906001019060200180831161070257829003601f168201915b50505050509550848054610732906123a0565b80601f016020809104026020016040519081016040528092919081815260200182805461075e906123a0565b80156107ab5780601f10610780576101008083540402835291602001916107ab565b820191906000526020600020905b81548152906001019060200180831161078e57829003601f168201915b505050505094508380546107be906123a0565b80601f01602080910402602001604051908101604052809291908181526020018280546107ea906123a0565b80156108375780601f1061080c57610100808354040283529160200191610837565b820191906000526020600020905b81548152906001019060200180831161081a57829003601f168201915b5050505050935082805461084a906123a0565b80601f0160208091040260200160405190810160405280929190818152602001828054610876906123a0565b80156108c35780601f10610898576101008083540402835291602001916108c3565b820191906000526020600020905b8154815290600101906020018083116108a657829003601f168201915b505050505092508180546108d6906123a0565b80601f0160208091040260200160405190810160405280929190818152602001828054610902906123a0565b801561094f5780601f106109245761010080835404028352916020019161094f565b820191906000526020600020905b81548152906001019060200180831161093257829003601f168201915b50505050509150808054610962906123a0565b80601f016020809104026020016040519081016040528092919081815260200182805461098e906123a0565b80156109db5780601f106109b0576101008083540402835291602001916109db565b820191906000526020600020905b8154815290600101906020018083116109be57829003601f168201915b5050505050905095509550955095509550955091939550919395565b60038181548110610a0757600080fd5b906000526020600020016000915054906101000a900473ffffffffffffffffffffffffffffffffffffffff1681565b610a3e6116d1565b600260008373ffffffffffffffffffffffffffffffffffffffff1673ffffffffffffffffffffffffffffffffffffffff168152602001908152602001600020604051806040016040529081600082018054610a98906123a0565b80601f0160208091040260200160405190810160405280929190818152602001828054610ac4906123a0565b8015610b115780601f10610ae657610100808354040283529160200191610b11565b820191906000526020600020905b815481529060010190602001808311610af457829003601f168201915b50505050508152602001600182018054610b2a906123a0565b80601f0160208091040260200160405190810160405280929190818152602001828054610b56906123a0565b8015610ba35780601f10610b7857610100808354040283529160200191610ba3565b820191906000526020600020905b815481529060010190602001808311610b8657829003601f168201915b5050505050815250509050919050565b60008054906101000a900473ffffffffffffffffffffffffffffffffffffffff1673ffffffffffffffffffffffffffffffffffffffff163373ffffffffffffffffffffffffffffffffffffffff1614610c0b57600080fd5b85600160008973ffffffffffffffffffffffffffffffffffffffff1673ffffffffffffffffffffffffffffffffffffffff1681526020019081526020016000206000019080519060200190610c619291906116eb565b5084600160008973ffffffffffffffffffffffffffffffffffffffff1673ffffffffffffffffffffffffffffffffffffffff1681526020019081526020016000206001019080519060200190610cb89291906116eb565b5083600160008973ffffffffffffffffffffffffffffffffffffffff1673ffffffffffffffffffffffffffffffffffffffff1681526020019081526020016000206002019080519060200190610d0f9291906116eb565b5082600160008973ffffffffffffffffffffffffffffffffffffffff1673ffffffffffffffffffffffffffffffffffffffff1681526020019081526020016000206003019080519060200190610d669291906116eb565b5081600160008973ffffffffffffffffffffffffffffffffffffffff1673ffffffffffffffffffffffffffffffffffffffff1681526020019081526020016000206005019080519060200190610dbd9291906116eb565b5080600160008973ffffffffffffffffffffffffffffffffffffffff1673ffffffffffffffffffffffffffffffffffffffff1681526020019081526020016000206006019080519060200190610e149291906116eb565b506003879080600181540180825580915050600190039060005260206000200160009091909190916101000a81548173ffffffffffffffffffffffffffffffffffffffff021916908373ffffffffffffffffffffffffffffffffffffffff16021790555050505050505050565b60008054906101000a900473ffffffffffffffffffffffffffffffffffffffff1681565b60606000610eb2846115f1565b90506000610ebf846115f1565b90506000610f96600160008973ffffffffffffffffffffffffffffffffffffffff1673ffffffffffffffffffffffffffffffffffffffff1681526020019081526020016000206005018054610f13906123a0565b80601f0160208091040260200160405190810160405280929190818152602001828054610f3f906123a0565b8015610f8c5780601f10610f6157610100808354040283529160200191610f8c565b820191906000526020600020905b815481529060010190602001808311610f6f57829003601f168201915b50505050506115f1565b9050600061106d600160008a73ffffffffffffffffffffffffffffffffffffffff1673ffffffffffffffffffffffffffffffffffffffff1681526020019081526020016000206006018054610fea906123a0565b80601f0160208091040260200160405190810160405280929190818152602001828054611016906123a0565b80156110635780601f1061103857610100808354040283529160200191611063565b820191906000526020600020905b81548152906001019060200180831161104657829003601f168201915b50505050506115f1565b90506000611144600160008b73ffffffffffffffffffffffffffffffffffffffff1673ffffffffffffffffffffffffffffffffffffffff16815260200190815260200160002060030180546110c1906123a0565b80601f01602080910402602001604051908101604052809291908181526020018280546110ed906123a0565b801561113a5780601f1061110f5761010080835404028352916020019161113a565b820191906000526020600020905b81548152906001019060200180831161111d57829003601f168201915b50505050506115f1565b90508382101580156111565750828410155b611195576040517f08c379a000000000000000000000000000000000000000000000000000000000815260040161118c90611f0d565b60405180910390fd5b8481106111de576040518060400160405280600881526020017f417070726f7665640000000000000000000000000000000000000000000000008152509550505050505061121c565b6040518060400160405280601181526020017f4f7574206f6620636f6d706c69616e6365000000000000000000000000000000815250955050505050505b9392505050565b6000600454905090565b6000600380549050905090565b60008054906101000a900473ffffffffffffffffffffffffffffffffffffffff1673ffffffffffffffffffffffffffffffffffffffff163373ffffffffffffffffffffffffffffffffffffffff16146112c8576040517f08c379a00000000000000000000000000000000000000000000000000000000081526004016112bf90611f2d565b60405180910390fd5b8173ffffffffffffffffffffffffffffffffffffffff166108fc829081150290604051600060405180830381858888f1935050505015801561130e573d6000803e3d6000fd5b507f7fa9aafeb8bb803d77de5d84bc2f2edbd842ca91b20cd5020aa21dfe26ab0be982824760405161134293929190611dd0565b60405180910390a15050565b600061135b848484610ea5565b905060405160200161136c90611d70565b60405160208183030381529060405280519060200120816040516020016113939190611d59565b604051602081830303815290604052805190602001201415611440576040518060400160405280600681526020017f6163636570740000000000000000000000000000000000000000000000000000815250600260008673ffffffffffffffffffffffffffffffffffffffff1673ffffffffffffffffffffffffffffffffffffffff168152602001908152602001600020600001908051906020019061143a9291906116eb565b50611520565b60405160200161144f90611d85565b60405160208183030381529060405280519060200120816040516020016114769190611d59565b60405160208183030381529060405280519060200120141561151f576040518060400160405280600781526020017f6465636c696e6500000000000000000000000000000000000000000000000000815250600260008673ffffffffffffffffffffffffffffffffffffffff1673ffffffffffffffffffffffffffffffffffffffff168152602001908152602001600020600101908051906020019061151d9291906116eb565b505b5b50505050565b7f90890809c654f11d6e72a28fa60149770a0d11ec6c92319d6ceb2bb0a4ea1a1533344760405161155993929190611e07565b60405180910390a1565b606060038054806020026020016040519081016040528092919081815260200182805480156115e757602002820191906000526020600020905b8160009054906101000a900473ffffffffffffffffffffffffffffffffffffffff1673ffffffffffffffffffffffffffffffffffffffff168152602001906001019080831161159d575b5050505050905090565b60008060009050600083905060005b81518110156116c657600081835161161891906122a6565b90506000838381518110611655577f4e487b7100000000000000000000000000000000000000000000000000000000600052603260045260246000fd5b602001015160f81c60f81b905060008160f81c9050600060308260ff1661167c91906122a6565b905060018461168b91906122a6565b600a611697919061212e565b816116a2919061224c565b876116ad9190612085565b96505050505080806116be906123d2565b915050611600565b508192505050919050565b604051806040016040528060608152602001606081525090565b8280546116f7906123a0565b90600052602060002090601f0160209004810192826117195760008555611760565b82601f1061173257805160ff1916838001178555611760565b82800160010185558215611760579182015b8281111561175f578251825591602001919060010190611744565b5b50905061176d9190611771565b5090565b5b8082111561178a576000816000905550600101611772565b5090565b60006117a161179c84611fe4565b611fb3565b9050828152602081018484840111156117b957600080fd5b6117c484828561235e565b509392505050565b6000813590506117db816124c6565b92915050565b6000813590506117f0816124dd565b92915050565b600082601f83011261180757600080fd5b813561181784826020860161178e565b91505092915050565b60008135905061182f816124f4565b92915050565b60006020828403121561184757600080fd5b6000611855848285016117cc565b91505092915050565b6000806040838503121561187157600080fd5b600061187f858286016117e1565b925050602061189085828601611820565b9150509250929050565b6000806000606084860312156118af57600080fd5b60006118bd868287016117cc565b935050602084013567ffffffffffffffff8111156118da57600080fd5b6118e6868287016117f6565b925050604084013567ffffffffffffffff81111561190357600080fd5b61190f868287016117f6565b9150509250925092565b600080600080600080600060e0888a03121561193457600080fd5b60006119428a828b016117cc565b975050602088013567ffffffffffffffff81111561195f57600080fd5b61196b8a828b016117f6565b965050604088013567ffffffffffffffff81111561198857600080fd5b6119948a828b016117f6565b955050606088013567ffffffffffffffff8111156119b157600080fd5b6119bd8a828b016117f6565b945050608088013567ffffffffffffffff8111156119da57600080fd5b6119e68a828b016117f6565b93505060a088013567ffffffffffffffff811115611a0357600080fd5b611a0f8a828b016117f6565b92505060c088013567ffffffffffffffff811115611a2c57600080fd5b611a388a828b016117f6565b91505092959891949750929550565b600060208284031215611a5957600080fd5b600082013567ffffffffffffffff811115611a7357600080fd5b611a7f848285016117f6565b91505092915050565b600060208284031215611a9a57600080fd5b6000611aa884828501611820565b91505092915050565b6000611abd8383611ae7565b60208301905092915050565b611ad281612328565b82525050565b611ae1816122ec565b82525050565b611af0816122da565b82525050565b611aff816122da565b82525050565b6000611b1082612024565b611b1a8185612047565b9350611b2583612014565b8060005b83811015611b56578151611b3d8882611ab1565b9750611b488361203a565b925050600181019050611b29565b5085935050505092915050565b6000611b6e8261202f565b611b788185612058565b9350611b8881856020860161236d565b611b91816124a8565b840191505092915050565b6000611ba78261202f565b611bb18185612069565b9350611bc181856020860161236d565b611bca816124a8565b840191505092915050565b6000611be08261202f565b611bea818561207a565b9350611bfa81856020860161236d565b80840191505092915050565b6000611c1360088361207a565b91507f417070726f7665640000000000000000000000000000000000000000000000006000830152600882019050919050565b6000611c53600b83612069565b91507f6f7574206f662074696d650000000000000000000000000000000000000000006000830152602082019050919050565b6000611c9360118361207a565b91507f4f7574206f6620636f6d706c69616e63650000000000000000000000000000006000830152601182019050919050565b6000611cd3600983612069565b91507f4e6f74206f776e657200000000000000000000000000000000000000000000006000830152602082019050919050565b60006040830160008301518482036000860152611d238282611b63565b91505060208301518482036020860152611d3d8282611b63565b9150508091505092915050565b611d538161231e565b82525050565b6000611d658284611bd5565b915081905092915050565b6000611d7b82611c06565b9150819050919050565b6000611d9082611c86565b9150819050919050565b6000602082019050611daf6000830184611af6565b92915050565b6000602082019050611dca6000830184611ad8565b92915050565b6000606082019050611de56000830186611ac9565b611df26020830185611d4a565b611dff6040830184611d4a565b949350505050565b6000606082019050611e1c6000830186611af6565b611e296020830185611d4a565b611e366040830184611d4a565b949350505050565b60006020820190508181036000830152611e588184611b05565b905092915050565b60006020820190508181036000830152611e7a8184611b9c565b905092915050565b600060c0820190508181036000830152611e9c8189611b9c565b90508181036020830152611eb08188611b9c565b90508181036040830152611ec48187611b9c565b90508181036060830152611ed88186611b9c565b90508181036080830152611eec8185611b9c565b905081810360a0830152611f008184611b9c565b9050979650505050505050565b60006020820190508181036000830152611f2681611c46565b9050919050565b60006020820190508181036000830152611f4681611cc6565b9050919050565b60006020820190508181036000830152611f678184611d06565b905092915050565b6000602082019050611f846000830184611d4a565b92915050565b6000604082019050611f9f6000830185611d4a565b611fac6020830184611d4a565b9392505050565b6000604051905081810181811067ffffffffffffffff82111715611fda57611fd9612479565b5b8060405250919050565b600067ffffffffffffffff821115611fff57611ffe612479565b5b601f19601f8301169050602081019050919050565b6000819050602082019050919050565b600081519050919050565b600081519050919050565b6000602082019050919050565b600082825260208201905092915050565b600082825260208201905092915050565b600082825260208201905092915050565b600081905092915050565b60006120908261231e565b915061209b8361231e565b9250827fffffffffffffffffffffffffffffffffffffffffffffffffffffffffffffffff038211156120d0576120cf61241b565b5b828201905092915050565b6000808291508390505b6001851115612125578086048111156121015761210061241b565b5b60018516156121105780820291505b808102905061211e856124b9565b94506120e5565b94509492505050565b60006121398261231e565b91506121448361231e565b92506121717fffffffffffffffffffffffffffffffffffffffffffffffffffffffffffffffff8484612179565b905092915050565b6000826121895760019050612245565b816121975760009050612245565b81600181146121ad57600281146121b7576121e6565b6001915050612245565b60ff8411156121c9576121c861241b565b5b8360020a9150848211156121e0576121df61241b565b5b50612245565b5060208310610133831016604e8410600b841016171561221b5782820a9050838111156122165761221561241b565b5b612245565b61222884848460016120db565b9250905081840481111561223f5761223e61241b565b5b81810290505b9392505050565b60006122578261231e565b91506122628361231e565b9250817fffffffffffffffffffffffffffffffffffffffffffffffffffffffffffffffff048311821515161561229b5761229a61241b565b5b828202905092915050565b60006122b18261231e565b91506122bc8361231e565b9250828210156122cf576122ce61241b565b5b828203905092915050565b60006122e5826122fe565b9050919050565b60006122f7826122fe565b9050919050565b600073ffffffffffffffffffffffffffffffffffffffff82169050919050565b6000819050919050565b60006123338261233a565b9050919050565b60006123458261234c565b9050919050565b6000612357826122fe565b9050919050565b82818337600083830152505050565b60005b8381101561238b578082015181840152602081019050612370565b8381111561239a576000848401525b50505050565b600060028204905060018216806123b857607f821691505b602082108114156123cc576123cb61244a565b5b50919050565b60006123dd8261231e565b91507fffffffffffffffffffffffffffffffffffffffffffffffffffffffffffffffff8214156124105761240f61241b565b5b600182019050919050565b7f4e487b7100000000000000000000000000000000000000000000000000000000600052601160045260246000fd5b7f4e487b7100000000000000000000000000000000000000000000000000000000600052602260045260246000fd5b7f4e487b7100000000000000000000000000000000000000000000000000000000600052604160045260246000fd5b6000601f19601f8301169050919050565b60008160011c9050919050565b6124cf816122da565b81146124da57600080fd5b50565b6124e6816122ec565b81146124f157600080fd5b50565b6124fd8161231e565b811461250857600080fd5b5056fea2646970667358221220d51e0f9b3a6b6a9ca7f374ea8dd5287dacd2a4556de9223b73edf78fa3d7905164736f6c63430008000033",
  "linkReferences": {},
  "deployedLinkReferences": {}
}