{
  "_format": "hh-sol-artifact-1",
  "contractName": "Employer",
  "sourceName": "contracts/Employer.sol",
  "abi": [
    {
      "inputs": [],
      "stateMutability": "payable",
      "type": "constructor"
    },
    {
      "anonymous": false,
      "inputs": [
        {
          "indexed": false,
          "internalType": "address",
          "name": "sender",
          "type": "address"
        },
        {
          "indexed": false,
          "internalType": "uint256",
          "name": "amount",
          "type": "uint256"
        },
        {
          "indexed": false,
          "internalType": "uint256",
          "name": "balance",
          "type": "uint256"
        }
      ],
      "name": "Deposit",
      "type": "event"
    },
    {
      "anonymous": false,
      "inputs": [
        {
          "indexed": false,
          "internalType": "address",
          "name": "to",
          "type": "address"
        },
        {
          "indexed": false,
          "internalType": "uint256",
          "name": "amount",
          "type": "uint256"
        },
        {
          "indexed": false,
          "internalType": "uint256",
          "name": "balance",
          "type": "uint256"
        }
      ],
      "name": "Transfer",
      "type": "event"
    },
    {
      "anonymous": false,
      "inputs": [
        {
          "indexed": false,
          "internalType": "uint256",
          "name": "amount",
          "type": "uint256"
        },
        {
          "indexed": false,
          "internalType": "uint256",
          "name": "balance",
          "type": "uint256"
        }
      ],
      "name": "Withdraw",
      "type": "event"
    },
    {
      "inputs": [],
      "name": "_to",
      "outputs": [
        {
          "internalType": "address payable",
          "name": "",
          "type": "address"
        }
      ],
      "stateMutability": "view",
      "type": "function"
    },
    {
      "inputs": [
        {
          "internalType": "address",
          "name": "_address",
          "type": "address"
        },
        {
          "internalType": "string",
          "name": "distance",
          "type": "string"
        },
        {
          "internalType": "string",
          "name": "fetchedHour",
          "type": "string"
        }
      ],
      "name": "contractCondition",
      "outputs": [],
      "stateMutability": "nonpayable",
      "type": "function"
    },
    {
      "inputs": [],
      "name": "countEmployees",
      "outputs": [
        {
          "internalType": "uint256",
          "name": "",
          "type": "uint256"
        }
      ],
      "stateMutability": "view",
      "type": "function"
    },
    {
      "inputs": [],
      "name": "deposit",
      "outputs": [],
      "stateMutability": "payable",
      "type": "function"
    },
    {
      "inputs": [
        {
          "internalType": "uint256",
          "name": "",
          "type": "uint256"
        }
      ],
      "name": "employeeAccts",
      "outputs": [
        {
          "internalType": "address",
          "name": "",
          "type": "address"
        }
      ],
      "stateMutability": "view",
      "type": "function"
    },
    {
      "inputs": [],
      "name": "getAllEmployees",
      "outputs": [
        {
          "internalType": "address[]",
          "name": "",
          "type": "address[]"
        }
      ],
      "stateMutability": "view",
      "type": "function"
    },
    {
      "inputs": [],
      "name": "getBalance",
      "outputs": [
        {
          "internalType": "uint256",
          "name": "",
          "type": "uint256"
        }
      ],
      "stateMutability": "view",
      "type": "function"
    },
    {
      "inputs": [
        {
          "internalType": "address",
          "name": "_address",
          "type": "address"
        }
      ],
      "name": "getEmployee",
      "outputs": [
        {
          "internalType": "string",
          "name": "",
          "type": "string"
        },
        {
          "internalType": "string",
          "name": "",
          "type": "string"
        },
        {
          "internalType": "string",
          "name": "",
          "type": "string"
        },
        {
          "internalType": "string",
          "name": "",
          "type": "string"
        },
        {
          "internalType": "string",
          "name": "",
          "type": "string"
        },
        {
          "internalType": "string",
          "name": "",
          "type": "string"
        }
      ],
      "stateMutability": "view",
      "type": "function"
    },
    {
      "inputs": [],
      "name": "getOwedAmount",
      "outputs": [
        {
          "internalType": "uint256",
          "name": "",
          "type": "uint256"
        }
      ],
      "stateMutability": "view",
      "type": "function"
    },
    {
      "inputs": [
        {
          "internalType": "address",
          "name": "_address",
          "type": "address"
        }
      ],
      "name": "getResults",
      "outputs": [
        {
          "components": [
            {
              "internalType": "string",
              "name": "accept",
              "type": "string"
            },
            {
              "internalType": "string",
              "name": "decline",
              "type": "string"
            }
          ],
          "internalType": "struct Employer.Output",
          "name": "",
          "type": "tuple"
        }
      ],
      "stateMutability": "view",
      "type": "function"
    },
    {
      "inputs": [],
      "name": "notPayable",
      "outputs": [],
      "stateMutability": "nonpayable",
      "type": "function"
    },
    {
      "inputs": [],
      "name": "owner",
      "outputs": [
        {
          "internalType": "address payable",
          "name": "",
          "type": "address"
        }
      ],
      "stateMutability": "view",
      "type": "function"
    },
    {
      "inputs": [
        {
          "internalType": "address",
          "name": "_address",
          "type": "address"
        },
        {
          "internalType": "string",
          "name": "distance",
          "type": "string"
        },
        {
          "internalType": "string",
          "name": "fetchedHour",
          "type": "string"
        }
      ],
      "name": "setContract",
      "outputs": [
        {
          "internalType": "string",
          "name": "",
          "type": "string"
        }
      ],
      "stateMutability": "view",
      "type": "function"
    },
    {
      "inputs": [
        {
          "internalType": "address",
          "name": "_address",
          "type": "address"
        },
        {
          "internalType": "string",
          "name": "_empName",
          "type": "string"
        },
        {
          "internalType": "string",
          "name": "_long",
          "type": "string"
        },
        {
          "internalType": "string",
          "name": "_lat",
          "type": "string"
        },
        {
          "internalType": "string",
          "name": "_requiredDistance",
          "type": "string"
        },
        {
          "internalType": "string",
          "name": "_startHour",
          "type": "string"
        },
        {
          "internalType": "string",
          "name": "_endHour",
          "type": "string"
        }
      ],
      "name": "setEmployee",
      "outputs": [],
      "stateMutability": "nonpayable",
      "type": "function"
    },
    {
      "inputs": [
        {
          "internalType": "string",
          "name": "numString",
          "type": "string"
        }
      ],
      "name": "stnum",
      "outputs": [
        {
          "internalType": "uint256",
          "name": "",
          "type": "uint256"
        }
      ],
      "stateMutability": "pure",
      "type": "function"
    },
    {
      "inputs": [
        {
          "internalType": "address payable",
          "name": "_too",
          "type": "address"
        },
        {
          "internalType": "uint256",
          "name": "_amount",
          "type": "uint256"
        }
      ],
      "name": "transfer",
      "outputs": [],
      "stateMutability": "nonpayable",
      "type": "function"
    }
  ],
  "bytecode": "0x608060405266038d7ea4c68000600555336000806101000a81548173ffffffffffffffffffffffffffffffffffffffff021916908373ffffffffffffffffffffffffffffffffffffffff1602179055506124868061005e6000396000f3fe6080604052600436106100f35760003560e01c80639094fd501161008a578063aabe289e11610059578063aabe289e14610331578063d0e30db01461035a578063e3366fed14610364578063f0f1682e1461038f576100f3565b80639094fd501461027557806392634916146102b2578063988c0bce146102dd578063a9059cbb14610308576100f3565b806350bc4a98116100c657806350bc4a98146101b957806359fd0723146101f6578063689d14b91461021f5780638da5cb5b1461024a576100f3565b806312065fe0146100f8578063273884bd1461012357806332648e091461013a5780634f0253961461017c575b600080fd5b34801561010457600080fd5b5061010d6103cc565b60405161011a9190611edd565b60405180910390f35b34801561012f57600080fd5b506101386103d4565b005b34801561014657600080fd5b50610161600480360381019061015c91906117a3565b6103d6565b60405161017396959493929190611df0565b60405180910390f35b34801561018857600080fd5b506101a3600480360381019061019e91906119f6565b6108c8565b6040516101b09190611d08565b60405180910390f35b3480156101c557600080fd5b506101e060048036038101906101db91906117a3565b610907565b6040516101ed9190611ebb565b60405180910390f35b34801561020257600080fd5b5061021d60048036038101906102189190611887565b610a84565b005b34801561022b57600080fd5b50610234610d52565b6040516102419190611d23565b60405180910390f35b34801561025657600080fd5b5061025f610d78565b60405161026c9190611d23565b60405180910390f35b34801561028157600080fd5b5061029c60048036038101906102979190611808565b610d9c565b6040516102a99190611dce565b60405180910390f35b3480156102be57600080fd5b506102c761111a565b6040516102d49190611edd565b60405180910390f35b3480156102e957600080fd5b506102f2611124565b6040516102ff9190611edd565b60405180910390f35b34801561031457600080fd5b5061032f600480360381019061032a91906117cc565b611131565b005b34801561033d57600080fd5b5061035860048036038101906103539190611808565b611245565b005b610362611494565b005b34801561037057600080fd5b506103796114d1565b6040516103869190611dac565b60405180910390f35b34801561039b57600080fd5b506103b660048036038101906103b191906119b5565b61155f565b6040516103c39190611edd565b60405180910390f35b600047905090565b565b606080606080606080600260008873ffffffffffffffffffffffffffffffffffffffff1673ffffffffffffffffffffffffffffffffffffffff168152602001908152602001600020600001600260008973ffffffffffffffffffffffffffffffffffffffff1673ffffffffffffffffffffffffffffffffffffffff168152602001908152602001600020600101600260008a73ffffffffffffffffffffffffffffffffffffffff1673ffffffffffffffffffffffffffffffffffffffff168152602001908152602001600020600201600260008b73ffffffffffffffffffffffffffffffffffffffff1673ffffffffffffffffffffffffffffffffffffffff168152602001908152602001600020600501600260008c73ffffffffffffffffffffffffffffffffffffffff1673ffffffffffffffffffffffffffffffffffffffff168152602001908152602001600020600601600260008d73ffffffffffffffffffffffffffffffffffffffff1673ffffffffffffffffffffffffffffffffffffffff168152602001908152602001600020600301858054610577906122e5565b80601f01602080910402602001604051908101604052809291908181526020018280546105a3906122e5565b80156105f05780601f106105c5576101008083540402835291602001916105f0565b820191906000526020600020905b8154815290600101906020018083116105d357829003601f168201915b50505050509550848054610603906122e5565b80601f016020809104026020016040519081016040528092919081815260200182805461062f906122e5565b801561067c5780601f106106515761010080835404028352916020019161067c565b820191906000526020600020905b81548152906001019060200180831161065f57829003601f168201915b5050505050945083805461068f906122e5565b80601f01602080910402602001604051908101604052809291908181526020018280546106bb906122e5565b80156107085780601f106106dd57610100808354040283529160200191610708565b820191906000526020600020905b8154815290600101906020018083116106eb57829003601f168201915b5050505050935082805461071b906122e5565b80601f0160208091040260200160405190810160405280929190818152602001828054610747906122e5565b80156107945780601f1061076957610100808354040283529160200191610794565b820191906000526020600020905b81548152906001019060200180831161077757829003601f168201915b505050505092508180546107a7906122e5565b80601f01602080910402602001604051908101604052809291908181526020018280546107d3906122e5565b80156108205780601f106107f557610100808354040283529160200191610820565b820191906000526020600020905b81548152906001019060200180831161080357829003601f168201915b50505050509150808054610833906122e5565b80601f016020809104026020016040519081016040528092919081815260200182805461085f906122e5565b80156108ac5780601f10610881576101008083540402835291602001916108ac565b820191906000526020600020905b81548152906001019060200180831161088f57829003601f168201915b5050505050905095509550955095509550955091939550919395565b600481815481106108d857600080fd5b906000526020600020016000915054906101000a900473ffffffffffffffffffffffffffffffffffffffff1681565b61090f61163f565b600360008373ffffffffffffffffffffffffffffffffffffffff1673ffffffffffffffffffffffffffffffffffffffff168152602001908152602001600020604051806040016040529081600082018054610969906122e5565b80601f0160208091040260200160405190810160405280929190818152602001828054610995906122e5565b80156109e25780601f106109b7576101008083540402835291602001916109e2565b820191906000526020600020905b8154815290600101906020018083116109c557829003601f168201915b505050505081526020016001820180546109fb906122e5565b80601f0160208091040260200160405190810160405280929190818152602001828054610a27906122e5565b8015610a745780601f10610a4957610100808354040283529160200191610a74565b820191906000526020600020905b815481529060010190602001808311610a5757829003601f168201915b5050505050815250509050919050565b60008054906101000a900473ffffffffffffffffffffffffffffffffffffffff1673ffffffffffffffffffffffffffffffffffffffff163373ffffffffffffffffffffffffffffffffffffffff1614610adc57600080fd5b85600260008973ffffffffffffffffffffffffffffffffffffffff1673ffffffffffffffffffffffffffffffffffffffff1681526020019081526020016000206000019080519060200190610b32929190611659565b5084600260008973ffffffffffffffffffffffffffffffffffffffff1673ffffffffffffffffffffffffffffffffffffffff1681526020019081526020016000206001019080519060200190610b89929190611659565b5083600260008973ffffffffffffffffffffffffffffffffffffffff1673ffffffffffffffffffffffffffffffffffffffff1681526020019081526020016000206002019080519060200190610be0929190611659565b5082600260008973ffffffffffffffffffffffffffffffffffffffff1673ffffffffffffffffffffffffffffffffffffffff1681526020019081526020016000206003019080519060200190610c37929190611659565b5081600260008973ffffffffffffffffffffffffffffffffffffffff1673ffffffffffffffffffffffffffffffffffffffff1681526020019081526020016000206005019080519060200190610c8e929190611659565b5080600260008973ffffffffffffffffffffffffffffffffffffffff1673ffffffffffffffffffffffffffffffffffffffff1681526020019081526020016000206006019080519060200190610ce5929190611659565b506004879080600181540180825580915050600190039060005260206000200160009091909190916101000a81548173ffffffffffffffffffffffffffffffffffffffff021916908373ffffffffffffffffffffffffffffffffffffffff16021790555050505050505050565b600160009054906101000a900473ffffffffffffffffffffffffffffffffffffffff1681565b60008054906101000a900473ffffffffffffffffffffffffffffffffffffffff1681565b60606000610da98461155f565b90506000610db68461155f565b90506000610e8d600260008973ffffffffffffffffffffffffffffffffffffffff1673ffffffffffffffffffffffffffffffffffffffff1681526020019081526020016000206005018054610e0a906122e5565b80601f0160208091040260200160405190810160405280929190818152602001828054610e36906122e5565b8015610e835780601f10610e5857610100808354040283529160200191610e83565b820191906000526020600020905b815481529060010190602001808311610e6657829003601f168201915b505050505061155f565b90506000610f64600260008a73ffffffffffffffffffffffffffffffffffffffff1673ffffffffffffffffffffffffffffffffffffffff1681526020019081526020016000206006018054610ee1906122e5565b80601f0160208091040260200160405190810160405280929190818152602001828054610f0d906122e5565b8015610f5a5780601f10610f2f57610100808354040283529160200191610f5a565b820191906000526020600020905b815481529060010190602001808311610f3d57829003601f168201915b505050505061155f565b9050600061103b600260008b73ffffffffffffffffffffffffffffffffffffffff1673ffffffffffffffffffffffffffffffffffffffff1681526020019081526020016000206003018054610fb8906122e5565b80601f0160208091040260200160405190810160405280929190818152602001828054610fe4906122e5565b80156110315780601f1061100657610100808354040283529160200191611031565b820191906000526020600020905b81548152906001019060200180831161101457829003601f168201915b505050505061155f565b905083821015801561104d5750828410155b61108c576040517f08c379a000000000000000000000000000000000000000000000000000000000815260040161108390611e7b565b60405180910390fd5b8481106110d5576040518060400160405280600881526020017f417070726f76656400000000000000000000000000000000000000000000000081525095505050505050611113565b6040518060400160405280601181526020017f4f7574206f6620636f6d706c69616e6365000000000000000000000000000000815250955050505050505b9392505050565b6000600554905090565b6000600480549050905090565b60008054906101000a900473ffffffffffffffffffffffffffffffffffffffff1673ffffffffffffffffffffffffffffffffffffffff163373ffffffffffffffffffffffffffffffffffffffff16146111bf576040517f08c379a00000000000000000000000000000000000000000000000000000000081526004016111b690611e9b565b60405180910390fd5b8173ffffffffffffffffffffffffffffffffffffffff166108fc829081150290604051600060405180830381858888f19350505050158015611205573d6000803e3d6000fd5b507f7fa9aafeb8bb803d77de5d84bc2f2edbd842ca91b20cd5020aa21dfe26ab0be982824760405161123993929190611d3e565b60405180910390a15050565b6000611252848484610d9c565b905060405160200161126390611cde565b604051602081830303815290604052805190602001208160405160200161128a9190611cc7565b6040516020818303038152906040528051906020012014156113ae576040518060400160405280600681526020017f6163636570740000000000000000000000000000000000000000000000000000815250600360008673ffffffffffffffffffffffffffffffffffffffff1673ffffffffffffffffffffffffffffffffffffffff1681526020019081526020016000206000019080519060200190611331929190611659565b506000633b9aca00905084600160006101000a81548173ffffffffffffffffffffffffffffffffffffffff021916908373ffffffffffffffffffffffffffffffffffffffff1602179055506113a8600160009054906101000a900473ffffffffffffffffffffffffffffffffffffffff1682611131565b5061148e565b6040516020016113bd90611cf3565b60405160208183030381529060405280519060200120816040516020016113e49190611cc7565b60405160208183030381529060405280519060200120141561148d576040518060400160405280600781526020017f6465636c696e6500000000000000000000000000000000000000000000000000815250600360008673ffffffffffffffffffffffffffffffffffffffff1673ffffffffffffffffffffffffffffffffffffffff168152602001908152602001600020600101908051906020019061148b929190611659565b505b5b50505050565b7f90890809c654f11d6e72a28fa60149770a0d11ec6c92319d6ceb2bb0a4ea1a153334476040516114c793929190611d75565b60405180910390a1565b6060600480548060200260200160405190810160405280929190818152602001828054801561155557602002820191906000526020600020905b8160009054906101000a900473ffffffffffffffffffffffffffffffffffffffff1673ffffffffffffffffffffffffffffffffffffffff168152602001906001019080831161150b575b5050505050905090565b60008060009050600083905060005b815181101561163457600081835161158691906121eb565b905060008383815181106115c3577f4e487b7100000000000000000000000000000000000000000000000000000000600052603260045260246000fd5b602001015160f81c60f81b905060008160f81c9050600060308260ff166115ea91906121eb565b90506001846115f991906121eb565b600a6116059190612073565b816116109190612191565b8761161b9190611fca565b965050505050808061162c90612317565b91505061156e565b508192505050919050565b604051806040016040528060608152602001606081525090565b828054611665906122e5565b90600052602060002090601f01602090048101928261168757600085556116ce565b82601f106116a057805160ff19168380011785556116ce565b828001600101855582156116ce579182015b828111156116cd5782518255916020019190600101906116b2565b5b5090506116db91906116df565b5090565b5b808211156116f85760008160009055506001016116e0565b5090565b600061170f61170a84611f29565b611ef8565b90508281526020810184848401111561172757600080fd5b6117328482856122a3565b509392505050565b6000813590506117498161240b565b92915050565b60008135905061175e81612422565b92915050565b600082601f83011261177557600080fd5b81356117858482602086016116fc565b91505092915050565b60008135905061179d81612439565b92915050565b6000602082840312156117b557600080fd5b60006117c38482850161173a565b91505092915050565b600080604083850312156117df57600080fd5b60006117ed8582860161174f565b92505060206117fe8582860161178e565b9150509250929050565b60008060006060848603121561181d57600080fd5b600061182b8682870161173a565b935050602084013567ffffffffffffffff81111561184857600080fd5b61185486828701611764565b925050604084013567ffffffffffffffff81111561187157600080fd5b61187d86828701611764565b9150509250925092565b600080600080600080600060e0888a0312156118a257600080fd5b60006118b08a828b0161173a565b975050602088013567ffffffffffffffff8111156118cd57600080fd5b6118d98a828b01611764565b965050604088013567ffffffffffffffff8111156118f657600080fd5b6119028a828b01611764565b955050606088013567ffffffffffffffff81111561191f57600080fd5b61192b8a828b01611764565b945050608088013567ffffffffffffffff81111561194857600080fd5b6119548a828b01611764565b93505060a088013567ffffffffffffffff81111561197157600080fd5b61197d8a828b01611764565b92505060c088013567ffffffffffffffff81111561199a57600080fd5b6119a68a828b01611764565b91505092959891949750929550565b6000602082840312156119c757600080fd5b600082013567ffffffffffffffff8111156119e157600080fd5b6119ed84828501611764565b91505092915050565b600060208284031215611a0857600080fd5b6000611a168482850161178e565b91505092915050565b6000611a2b8383611a55565b60208301905092915050565b611a408161226d565b82525050565b611a4f81612231565b82525050565b611a5e8161221f565b82525050565b611a6d8161221f565b82525050565b6000611a7e82611f69565b611a888185611f8c565b9350611a9383611f59565b8060005b83811015611ac4578151611aab8882611a1f565b9750611ab683611f7f565b925050600181019050611a97565b5085935050505092915050565b6000611adc82611f74565b611ae68185611f9d565b9350611af68185602086016122b2565b611aff816123ed565b840191505092915050565b6000611b1582611f74565b611b1f8185611fae565b9350611b2f8185602086016122b2565b611b38816123ed565b840191505092915050565b6000611b4e82611f74565b611b588185611fbf565b9350611b688185602086016122b2565b80840191505092915050565b6000611b81600883611fbf565b91507f417070726f7665640000000000000000000000000000000000000000000000006000830152600882019050919050565b6000611bc1600b83611fae565b91507f6f7574206f662074696d650000000000000000000000000000000000000000006000830152602082019050919050565b6000611c01601183611fbf565b91507f4f7574206f6620636f6d706c69616e63650000000000000000000000000000006000830152601182019050919050565b6000611c41600983611fae565b91507f4e6f74206f776e657200000000000000000000000000000000000000000000006000830152602082019050919050565b60006040830160008301518482036000860152611c918282611ad1565b91505060208301518482036020860152611cab8282611ad1565b9150508091505092915050565b611cc181612263565b82525050565b6000611cd38284611b43565b915081905092915050565b6000611ce982611b74565b9150819050919050565b6000611cfe82611bf4565b9150819050919050565b6000602082019050611d1d6000830184611a64565b92915050565b6000602082019050611d386000830184611a46565b92915050565b6000606082019050611d536000830186611a37565b611d606020830185611cb8565b611d6d6040830184611cb8565b949350505050565b6000606082019050611d8a6000830186611a64565b611d976020830185611cb8565b611da46040830184611cb8565b949350505050565b60006020820190508181036000830152611dc68184611a73565b905092915050565b60006020820190508181036000830152611de88184611b0a565b905092915050565b600060c0820190508181036000830152611e0a8189611b0a565b90508181036020830152611e1e8188611b0a565b90508181036040830152611e328187611b0a565b90508181036060830152611e468186611b0a565b90508181036080830152611e5a8185611b0a565b905081810360a0830152611e6e8184611b0a565b9050979650505050505050565b60006020820190508181036000830152611e9481611bb4565b9050919050565b60006020820190508181036000830152611eb481611c34565b9050919050565b60006020820190508181036000830152611ed58184611c74565b905092915050565b6000602082019050611ef26000830184611cb8565b92915050565b6000604051905081810181811067ffffffffffffffff82111715611f1f57611f1e6123be565b5b8060405250919050565b600067ffffffffffffffff821115611f4457611f436123be565b5b601f19601f8301169050602081019050919050565b6000819050602082019050919050565b600081519050919050565b600081519050919050565b6000602082019050919050565b600082825260208201905092915050565b600082825260208201905092915050565b600082825260208201905092915050565b600081905092915050565b6000611fd582612263565b9150611fe083612263565b9250827fffffffffffffffffffffffffffffffffffffffffffffffffffffffffffffffff0382111561201557612014612360565b5b828201905092915050565b6000808291508390505b600185111561206a5780860481111561204657612045612360565b5b60018516156120555780820291505b8081029050612063856123fe565b945061202a565b94509492505050565b600061207e82612263565b915061208983612263565b92506120b67fffffffffffffffffffffffffffffffffffffffffffffffffffffffffffffffff84846120be565b905092915050565b6000826120ce576001905061218a565b816120dc576000905061218a565b81600181146120f257600281146120fc5761212b565b600191505061218a565b60ff84111561210e5761210d612360565b5b8360020a91508482111561212557612124612360565b5b5061218a565b5060208310610133831016604e8410600b84101617156121605782820a90508381111561215b5761215a612360565b5b61218a565b61216d8484846001612020565b9250905081840481111561218457612183612360565b5b81810290505b9392505050565b600061219c82612263565b91506121a783612263565b9250817fffffffffffffffffffffffffffffffffffffffffffffffffffffffffffffffff04831182151516156121e0576121df612360565b5b828202905092915050565b60006121f682612263565b915061220183612263565b92508282101561221457612213612360565b5b828203905092915050565b600061222a82612243565b9050919050565b600061223c82612243565b9050919050565b600073ffffffffffffffffffffffffffffffffffffffff82169050919050565b6000819050919050565b60006122788261227f565b9050919050565b600061228a82612291565b9050919050565b600061229c82612243565b9050919050565b82818337600083830152505050565b60005b838110156122d05780820151818401526020810190506122b5565b838111156122df576000848401525b50505050565b600060028204905060018216806122fd57607f821691505b602082108114156123115761231061238f565b5b50919050565b600061232282612263565b91507fffffffffffffffffffffffffffffffffffffffffffffffffffffffffffffffff82141561235557612354612360565b5b600182019050919050565b7f4e487b7100000000000000000000000000000000000000000000000000000000600052601160045260246000fd5b7f4e487b7100000000000000000000000000000000000000000000000000000000600052602260045260246000fd5b7f4e487b7100000000000000000000000000000000000000000000000000000000600052604160045260246000fd5b6000601f19601f8301169050919050565b60008160011c9050919050565b6124148161221f565b811461241f57600080fd5b50565b61242b81612231565b811461243657600080fd5b50565b61244281612263565b811461244d57600080fd5b5056fea2646970667358221220f1f6c09459be307652e36dac081322c84be66ab17f12d71a792e127b731ee84d64736f6c63430008000033",
  "linkReferences": {},
  "deployedLinkReferences": {}
}