{
  "_format": "hh-sol-artifact-1",
  "contractName": "Employer",
  "sourceName": "contracts/Employer.sol",
  "abi": [
    {
      "inputs": [],
      "stateMutability": "payable",
      "type": "constructor"
    },
    {
      "anonymous": false,
      "inputs": [
        {
          "indexed": false,
          "internalType": "address",
          "name": "sender",
          "type": "address"
        },
        {
          "indexed": false,
          "internalType": "uint256",
          "name": "amount",
          "type": "uint256"
        },
        {
          "indexed": false,
          "internalType": "uint256",
          "name": "balance",
          "type": "uint256"
        }
      ],
      "name": "Deposit",
      "type": "event"
    },
    {
      "anonymous": false,
      "inputs": [
        {
          "indexed": false,
          "internalType": "address",
          "name": "to",
          "type": "address"
        },
        {
          "indexed": false,
          "internalType": "uint256",
          "name": "amount",
          "type": "uint256"
        },
        {
          "indexed": false,
          "internalType": "uint256",
          "name": "balance",
          "type": "uint256"
        }
      ],
      "name": "Transfer",
      "type": "event"
    },
    {
      "anonymous": false,
      "inputs": [
        {
          "indexed": false,
          "internalType": "uint256",
          "name": "amount",
          "type": "uint256"
        },
        {
          "indexed": false,
          "internalType": "uint256",
          "name": "balance",
          "type": "uint256"
        }
      ],
      "name": "Withdraw",
      "type": "event"
    },
    {
      "inputs": [],
      "name": "_to",
      "outputs": [
        {
          "internalType": "address payable",
          "name": "",
          "type": "address"
        }
      ],
      "stateMutability": "view",
      "type": "function"
    },
    {
      "inputs": [
        {
          "internalType": "address",
          "name": "_address",
          "type": "address"
        },
        {
          "internalType": "string",
          "name": "distance",
          "type": "string"
        },
        {
          "internalType": "string",
          "name": "fetchedHour",
          "type": "string"
        }
      ],
      "name": "contractCondition",
      "outputs": [],
      "stateMutability": "nonpayable",
      "type": "function"
    },
    {
      "inputs": [],
      "name": "countEmployees",
      "outputs": [
        {
          "internalType": "uint256",
          "name": "",
          "type": "uint256"
        }
      ],
      "stateMutability": "view",
      "type": "function"
    },
    {
      "inputs": [],
      "name": "deposit",
      "outputs": [],
      "stateMutability": "payable",
      "type": "function"
    },
    {
      "inputs": [
        {
          "internalType": "uint256",
          "name": "",
          "type": "uint256"
        }
      ],
      "name": "employeeAccts",
      "outputs": [
        {
          "internalType": "address",
          "name": "",
          "type": "address"
        }
      ],
      "stateMutability": "view",
      "type": "function"
    },
    {
      "inputs": [],
      "name": "getAllEmployees",
      "outputs": [
        {
          "internalType": "address[]",
          "name": "",
          "type": "address[]"
        }
      ],
      "stateMutability": "view",
      "type": "function"
    },
    {
      "inputs": [],
      "name": "getBalance",
      "outputs": [
        {
          "internalType": "uint256",
          "name": "",
          "type": "uint256"
        }
      ],
      "stateMutability": "view",
      "type": "function"
    },
    {
      "inputs": [
        {
          "internalType": "address",
          "name": "_address",
          "type": "address"
        }
      ],
      "name": "getEmployee",
      "outputs": [
        {
          "internalType": "string",
          "name": "",
          "type": "string"
        },
        {
          "internalType": "string",
          "name": "",
          "type": "string"
        },
        {
          "internalType": "string",
          "name": "",
          "type": "string"
        },
        {
          "internalType": "string",
          "name": "",
          "type": "string"
        },
        {
          "internalType": "string",
          "name": "",
          "type": "string"
        },
        {
          "internalType": "string",
          "name": "",
          "type": "string"
        }
      ],
      "stateMutability": "view",
      "type": "function"
    },
    {
      "inputs": [
        {
          "internalType": "address",
          "name": "_address",
          "type": "address"
        }
      ],
      "name": "getResults",
      "outputs": [
        {
          "components": [
            {
              "internalType": "string",
              "name": "status",
              "type": "string"
            }
          ],
          "internalType": "struct Employer.Output",
          "name": "",
          "type": "tuple"
        }
      ],
      "stateMutability": "view",
      "type": "function"
    },
    {
      "inputs": [],
      "name": "notPayable",
      "outputs": [],
      "stateMutability": "nonpayable",
      "type": "function"
    },
    {
      "inputs": [],
      "name": "owner",
      "outputs": [
        {
          "internalType": "address payable",
          "name": "",
          "type": "address"
        }
      ],
      "stateMutability": "view",
      "type": "function"
    },
    {
      "inputs": [
        {
          "internalType": "address",
          "name": "_address",
          "type": "address"
        },
        {
          "internalType": "string",
          "name": "distance",
          "type": "string"
        },
        {
          "internalType": "string",
          "name": "fetchedHour",
          "type": "string"
        }
      ],
      "name": "setContract",
      "outputs": [
        {
          "internalType": "string",
          "name": "",
          "type": "string"
        }
      ],
      "stateMutability": "view",
      "type": "function"
    },
    {
      "inputs": [
        {
          "internalType": "address",
          "name": "_address",
          "type": "address"
        },
        {
          "internalType": "string",
          "name": "_empName",
          "type": "string"
        },
        {
          "internalType": "string",
          "name": "_long",
          "type": "string"
        },
        {
          "internalType": "string",
          "name": "_lat",
          "type": "string"
        },
        {
          "internalType": "string",
          "name": "_requiredDistance",
          "type": "string"
        },
        {
          "internalType": "string",
          "name": "_startHour",
          "type": "string"
        },
        {
          "internalType": "string",
          "name": "_endHour",
          "type": "string"
        }
      ],
      "name": "setEmployee",
      "outputs": [],
      "stateMutability": "nonpayable",
      "type": "function"
    },
    {
      "inputs": [
        {
          "internalType": "string",
          "name": "numString",
          "type": "string"
        }
      ],
      "name": "stnum",
      "outputs": [
        {
          "internalType": "uint256",
          "name": "",
          "type": "uint256"
        }
      ],
      "stateMutability": "pure",
      "type": "function"
    },
    {
      "inputs": [
        {
          "internalType": "address payable",
          "name": "_too",
          "type": "address"
        },
        {
          "internalType": "uint256",
          "name": "_amount",
          "type": "uint256"
        }
      ],
      "name": "transfer",
      "outputs": [],
      "stateMutability": "nonpayable",
      "type": "function"
    }
  ],
  "bytecode": "0x6080604052336000806101000a81548173ffffffffffffffffffffffffffffffffffffffff021916908373ffffffffffffffffffffffffffffffffffffffff160217905550612388806100536000396000f3fe6080604052600436106100e85760003560e01c80638da5cb5b1161008a578063aabe289e11610059578063aabe289e146102fb578063d0e30db014610324578063e3366fed1461032e578063f0f1682e14610359576100e8565b80638da5cb5b1461023f5780639094fd501461026a578063988c0bce146102a7578063a9059cbb146102d2576100e8565b80634f025396116100c65780634f0253961461017157806350bc4a98146101ae57806359fd0723146101eb578063689d14b914610214576100e8565b806312065fe0146100ed578063273884bd1461011857806332648e091461012f575b600080fd5b3480156100f957600080fd5b50610102610396565b60405161010f9190611ddf565b60405180910390f35b34801561012457600080fd5b5061012d61039e565b005b34801561013b57600080fd5b506101566004803603810190610151919061172a565b6103a0565b60405161016896959493929190611d32565b60405180910390f35b34801561017d57600080fd5b506101986004803603810190610193919061197d565b610892565b6040516101a59190611c4a565b60405180910390f35b3480156101ba57600080fd5b506101d560048036038101906101d0919061172a565b6108d1565b6040516101e29190611dbd565b60405180910390f35b3480156101f757600080fd5b50610212600480360381019061020d919061180e565b6109bc565b005b34801561022057600080fd5b50610229610c8a565b6040516102369190611c65565b60405180910390f35b34801561024b57600080fd5b50610254610cb0565b6040516102619190611c65565b60405180910390f35b34801561027657600080fd5b50610291600480360381019061028c919061178f565b610cd4565b60405161029e9190611d10565b60405180910390f35b3480156102b357600080fd5b506102bc61105a565b6040516102c99190611ddf565b60405180910390f35b3480156102de57600080fd5b506102f960048036038101906102f49190611753565b611067565b005b34801561030757600080fd5b50610322600480360381019061031d919061178f565b6110ed565b005b61032c611422565b005b34801561033a57600080fd5b5061034361145f565b6040516103509190611cee565b60405180910390f35b34801561036557600080fd5b50610380600480360381019061037b919061193c565b6114ed565b60405161038d9190611ddf565b60405180910390f35b600047905090565b565b606080606080606080600260008873ffffffffffffffffffffffffffffffffffffffff1673ffffffffffffffffffffffffffffffffffffffff168152602001908152602001600020600001600260008973ffffffffffffffffffffffffffffffffffffffff1673ffffffffffffffffffffffffffffffffffffffff168152602001908152602001600020600101600260008a73ffffffffffffffffffffffffffffffffffffffff1673ffffffffffffffffffffffffffffffffffffffff168152602001908152602001600020600201600260008b73ffffffffffffffffffffffffffffffffffffffff1673ffffffffffffffffffffffffffffffffffffffff168152602001908152602001600020600501600260008c73ffffffffffffffffffffffffffffffffffffffff1673ffffffffffffffffffffffffffffffffffffffff168152602001908152602001600020600601600260008d73ffffffffffffffffffffffffffffffffffffffff1673ffffffffffffffffffffffffffffffffffffffff168152602001908152602001600020600301858054610541906121e7565b80601f016020809104026020016040519081016040528092919081815260200182805461056d906121e7565b80156105ba5780601f1061058f576101008083540402835291602001916105ba565b820191906000526020600020905b81548152906001019060200180831161059d57829003601f168201915b505050505095508480546105cd906121e7565b80601f01602080910402602001604051908101604052809291908181526020018280546105f9906121e7565b80156106465780601f1061061b57610100808354040283529160200191610646565b820191906000526020600020905b81548152906001019060200180831161062957829003601f168201915b50505050509450838054610659906121e7565b80601f0160208091040260200160405190810160405280929190818152602001828054610685906121e7565b80156106d25780601f106106a7576101008083540402835291602001916106d2565b820191906000526020600020905b8154815290600101906020018083116106b557829003601f168201915b505050505093508280546106e5906121e7565b80601f0160208091040260200160405190810160405280929190818152602001828054610711906121e7565b801561075e5780601f106107335761010080835404028352916020019161075e565b820191906000526020600020905b81548152906001019060200180831161074157829003601f168201915b50505050509250818054610771906121e7565b80601f016020809104026020016040519081016040528092919081815260200182805461079d906121e7565b80156107ea5780601f106107bf576101008083540402835291602001916107ea565b820191906000526020600020905b8154815290600101906020018083116107cd57829003601f168201915b505050505091508080546107fd906121e7565b80601f0160208091040260200160405190810160405280929190818152602001828054610829906121e7565b80156108765780601f1061084b57610100808354040283529160200191610876565b820191906000526020600020905b81548152906001019060200180831161085957829003601f168201915b5050505050905095509550955095509550955091939550919395565b600481815481106108a257600080fd5b906000526020600020016000915054906101000a900473ffffffffffffffffffffffffffffffffffffffff1681565b6108d96115cd565b600360008373ffffffffffffffffffffffffffffffffffffffff1673ffffffffffffffffffffffffffffffffffffffff168152602001908152602001600020604051806020016040529081600082018054610933906121e7565b80601f016020809104026020016040519081016040528092919081815260200182805461095f906121e7565b80156109ac5780601f10610981576101008083540402835291602001916109ac565b820191906000526020600020905b81548152906001019060200180831161098f57829003601f168201915b5050505050815250509050919050565b60008054906101000a900473ffffffffffffffffffffffffffffffffffffffff1673ffffffffffffffffffffffffffffffffffffffff163373ffffffffffffffffffffffffffffffffffffffff1614610a1457600080fd5b85600260008973ffffffffffffffffffffffffffffffffffffffff1673ffffffffffffffffffffffffffffffffffffffff1681526020019081526020016000206000019080519060200190610a6a9291906115e0565b5084600260008973ffffffffffffffffffffffffffffffffffffffff1673ffffffffffffffffffffffffffffffffffffffff1681526020019081526020016000206001019080519060200190610ac19291906115e0565b5083600260008973ffffffffffffffffffffffffffffffffffffffff1673ffffffffffffffffffffffffffffffffffffffff1681526020019081526020016000206002019080519060200190610b189291906115e0565b5082600260008973ffffffffffffffffffffffffffffffffffffffff1673ffffffffffffffffffffffffffffffffffffffff1681526020019081526020016000206003019080519060200190610b6f9291906115e0565b5081600260008973ffffffffffffffffffffffffffffffffffffffff1673ffffffffffffffffffffffffffffffffffffffff1681526020019081526020016000206005019080519060200190610bc69291906115e0565b5080600260008973ffffffffffffffffffffffffffffffffffffffff1673ffffffffffffffffffffffffffffffffffffffff1681526020019081526020016000206006019080519060200190610c1d9291906115e0565b506004879080600181540180825580915050600190039060005260206000200160009091909190916101000a81548173ffffffffffffffffffffffffffffffffffffffff021916908373ffffffffffffffffffffffffffffffffffffffff16021790555050505050505050565b600160009054906101000a900473ffffffffffffffffffffffffffffffffffffffff1681565b60008054906101000a900473ffffffffffffffffffffffffffffffffffffffff1681565b60606000610ce1846114ed565b90506000610cee846114ed565b90506000610dc5600260008973ffffffffffffffffffffffffffffffffffffffff1673ffffffffffffffffffffffffffffffffffffffff1681526020019081526020016000206005018054610d42906121e7565b80601f0160208091040260200160405190810160405280929190818152602001828054610d6e906121e7565b8015610dbb5780601f10610d9057610100808354040283529160200191610dbb565b820191906000526020600020905b815481529060010190602001808311610d9e57829003601f168201915b50505050506114ed565b90506000610e9c600260008a73ffffffffffffffffffffffffffffffffffffffff1673ffffffffffffffffffffffffffffffffffffffff1681526020019081526020016000206006018054610e19906121e7565b80601f0160208091040260200160405190810160405280929190818152602001828054610e45906121e7565b8015610e925780601f10610e6757610100808354040283529160200191610e92565b820191906000526020600020905b815481529060010190602001808311610e7557829003601f168201915b50505050506114ed565b90506000610f73600260008b73ffffffffffffffffffffffffffffffffffffffff1673ffffffffffffffffffffffffffffffffffffffff1681526020019081526020016000206003018054610ef0906121e7565b80601f0160208091040260200160405190810160405280929190818152602001828054610f1c906121e7565b8015610f695780601f10610f3e57610100808354040283529160200191610f69565b820191906000526020600020905b815481529060010190602001808311610f4c57829003601f168201915b50505050506114ed565b9050838210158015610f855750828410155b1561101557848110610fd3576040518060400160405280600881526020017f417070726f76656400000000000000000000000000000000000000000000000081525095505050505050611053565b6040518060400160405280601181526020017f4f7574206f6620636f6d706c69616e636500000000000000000000000000000081525095505050505050611053565b6040518060400160405280600a81526020017f54696d6520697320757000000000000000000000000000000000000000000000815250955050505050505b9392505050565b6000600480549050905090565b8173ffffffffffffffffffffffffffffffffffffffff166108fc829081150290604051600060405180830381858888f193505050501580156110ad573d6000803e3d6000fd5b507f7fa9aafeb8bb803d77de5d84bc2f2edbd842ca91b20cd5020aa21dfe26ab0be98282476040516110e193929190611c80565b60405180910390a15050565b60006110fa848484610cd4565b905060405160200161110b90611c20565b60405160208183030381529060405280519060200120816040516020016111329190611bf4565b604051602081830303815290604052805190602001201415611258576040518060400160405280600b81526020017f4163636570746564212121000000000000000000000000000000000000000000815250600360008673ffffffffffffffffffffffffffffffffffffffff1673ffffffffffffffffffffffffffffffffffffffff16815260200190815260200160002060000190805190602001906111d99291906115e0565b506000655047f5fe8c00905084600160006101000a81548173ffffffffffffffffffffffffffffffffffffffff021916908373ffffffffffffffffffffffffffffffffffffffff160217905550611252600160009054906101000a900473ffffffffffffffffffffffffffffffffffffffff1682611067565b5061141c565b60405160200161126790611c35565b604051602081830303815290604052805190602001208160405160200161128e9190611bf4565b60405160208183030381529060405280519060200120141561133b576040518060400160405280601181526020017f4f7574206f6620636f6d706c69616e6365000000000000000000000000000000815250600360008673ffffffffffffffffffffffffffffffffffffffff1673ffffffffffffffffffffffffffffffffffffffff16815260200190815260200160002060000190805190602001906113359291906115e0565b5061141b565b60405160200161134a90611c0b565b60405160208183030381529060405280519060200120816040516020016113719190611bf4565b60405160208183030381529060405280519060200120141561141a576040518060400160405280600b81526020017f54696d6520697320757021000000000000000000000000000000000000000000815250600360008673ffffffffffffffffffffffffffffffffffffffff1673ffffffffffffffffffffffffffffffffffffffff16815260200190815260200160002060000190805190602001906114189291906115e0565b505b5b5b50505050565b7f90890809c654f11d6e72a28fa60149770a0d11ec6c92319d6ceb2bb0a4ea1a1533344760405161145593929190611cb7565b60405180910390a1565b606060048054806020026020016040519081016040528092919081815260200182805480156114e357602002820191906000526020600020905b8160009054906101000a900473ffffffffffffffffffffffffffffffffffffffff1673ffffffffffffffffffffffffffffffffffffffff1681526020019060010190808311611499575b5050505050905090565b60008060009050600083905060005b81518110156115c257600081835161151491906120ed565b90506000838381518110611551577f4e487b7100000000000000000000000000000000000000000000000000000000600052603260045260246000fd5b602001015160f81c60f81b905060008160f81c9050600060308260ff1661157891906120ed565b905060018461158791906120ed565b600a6115939190611f75565b8161159e9190612093565b876115a99190611ecc565b96505050505080806115ba90612219565b9150506114fc565b508192505050919050565b6040518060200160405280606081525090565b8280546115ec906121e7565b90600052602060002090601f01602090048101928261160e5760008555611655565b82601f1061162757805160ff1916838001178555611655565b82800160010185558215611655579182015b82811115611654578251825591602001919060010190611639565b5b5090506116629190611666565b5090565b5b8082111561167f576000816000905550600101611667565b5090565b600061169661169184611e2b565b611dfa565b9050828152602081018484840111156116ae57600080fd5b6116b98482856121a5565b509392505050565b6000813590506116d08161230d565b92915050565b6000813590506116e581612324565b92915050565b600082601f8301126116fc57600080fd5b813561170c848260208601611683565b91505092915050565b6000813590506117248161233b565b92915050565b60006020828403121561173c57600080fd5b600061174a848285016116c1565b91505092915050565b6000806040838503121561176657600080fd5b6000611774858286016116d6565b925050602061178585828601611715565b9150509250929050565b6000806000606084860312156117a457600080fd5b60006117b2868287016116c1565b935050602084013567ffffffffffffffff8111156117cf57600080fd5b6117db868287016116eb565b925050604084013567ffffffffffffffff8111156117f857600080fd5b611804868287016116eb565b9150509250925092565b600080600080600080600060e0888a03121561182957600080fd5b60006118378a828b016116c1565b975050602088013567ffffffffffffffff81111561185457600080fd5b6118608a828b016116eb565b965050604088013567ffffffffffffffff81111561187d57600080fd5b6118898a828b016116eb565b955050606088013567ffffffffffffffff8111156118a657600080fd5b6118b28a828b016116eb565b945050608088013567ffffffffffffffff8111156118cf57600080fd5b6118db8a828b016116eb565b93505060a088013567ffffffffffffffff8111156118f857600080fd5b6119048a828b016116eb565b92505060c088013567ffffffffffffffff81111561192157600080fd5b61192d8a828b016116eb565b91505092959891949750929550565b60006020828403121561194e57600080fd5b600082013567ffffffffffffffff81111561196857600080fd5b611974848285016116eb565b91505092915050565b60006020828403121561198f57600080fd5b600061199d84828501611715565b91505092915050565b60006119b283836119dc565b60208301905092915050565b6119c78161216f565b82525050565b6119d681612133565b82525050565b6119e581612121565b82525050565b6119f481612121565b82525050565b6000611a0582611e6b565b611a0f8185611e8e565b9350611a1a83611e5b565b8060005b83811015611a4b578151611a3288826119a6565b9750611a3d83611e81565b925050600181019050611a1e565b5085935050505092915050565b6000611a6382611e76565b611a6d8185611e9f565b9350611a7d8185602086016121b4565b611a86816122ef565b840191505092915050565b6000611a9c82611e76565b611aa68185611eb0565b9350611ab68185602086016121b4565b611abf816122ef565b840191505092915050565b6000611ad582611e76565b611adf8185611ec1565b9350611aef8185602086016121b4565b80840191505092915050565b6000611b08600a83611ec1565b91507f54696d65206973207570000000000000000000000000000000000000000000006000830152600a82019050919050565b6000611b48600883611ec1565b91507f417070726f7665640000000000000000000000000000000000000000000000006000830152600882019050919050565b6000611b88601183611ec1565b91507f4f7574206f6620636f6d706c69616e63650000000000000000000000000000006000830152601182019050919050565b60006020830160008301518482036000860152611bd88282611a58565b9150508091505092915050565b611bee81612165565b82525050565b6000611c008284611aca565b915081905092915050565b6000611c1682611afb565b9150819050919050565b6000611c2b82611b3b565b9150819050919050565b6000611c4082611b7b565b9150819050919050565b6000602082019050611c5f60008301846119eb565b92915050565b6000602082019050611c7a60008301846119cd565b92915050565b6000606082019050611c9560008301866119be565b611ca26020830185611be5565b611caf6040830184611be5565b949350505050565b6000606082019050611ccc60008301866119eb565b611cd96020830185611be5565b611ce66040830184611be5565b949350505050565b60006020820190508181036000830152611d0881846119fa565b905092915050565b60006020820190508181036000830152611d2a8184611a91565b905092915050565b600060c0820190508181036000830152611d4c8189611a91565b90508181036020830152611d608188611a91565b90508181036040830152611d748187611a91565b90508181036060830152611d888186611a91565b90508181036080830152611d9c8185611a91565b905081810360a0830152611db08184611a91565b9050979650505050505050565b60006020820190508181036000830152611dd78184611bbb565b905092915050565b6000602082019050611df46000830184611be5565b92915050565b6000604051905081810181811067ffffffffffffffff82111715611e2157611e206122c0565b5b8060405250919050565b600067ffffffffffffffff821115611e4657611e456122c0565b5b601f19601f8301169050602081019050919050565b6000819050602082019050919050565b600081519050919050565b600081519050919050565b6000602082019050919050565b600082825260208201905092915050565b600082825260208201905092915050565b600082825260208201905092915050565b600081905092915050565b6000611ed782612165565b9150611ee283612165565b9250827fffffffffffffffffffffffffffffffffffffffffffffffffffffffffffffffff03821115611f1757611f16612262565b5b828201905092915050565b6000808291508390505b6001851115611f6c57808604811115611f4857611f47612262565b5b6001851615611f575780820291505b8081029050611f6585612300565b9450611f2c565b94509492505050565b6000611f8082612165565b9150611f8b83612165565b9250611fb87fffffffffffffffffffffffffffffffffffffffffffffffffffffffffffffffff8484611fc0565b905092915050565b600082611fd0576001905061208c565b81611fde576000905061208c565b8160018114611ff45760028114611ffe5761202d565b600191505061208c565b60ff8411156120105761200f612262565b5b8360020a91508482111561202757612026612262565b5b5061208c565b5060208310610133831016604e8410600b84101617156120625782820a90508381111561205d5761205c612262565b5b61208c565b61206f8484846001611f22565b9250905081840481111561208657612085612262565b5b81810290505b9392505050565b600061209e82612165565b91506120a983612165565b9250817fffffffffffffffffffffffffffffffffffffffffffffffffffffffffffffffff04831182151516156120e2576120e1612262565b5b828202905092915050565b60006120f882612165565b915061210383612165565b92508282101561211657612115612262565b5b828203905092915050565b600061212c82612145565b9050919050565b600061213e82612145565b9050919050565b600073ffffffffffffffffffffffffffffffffffffffff82169050919050565b6000819050919050565b600061217a82612181565b9050919050565b600061218c82612193565b9050919050565b600061219e82612145565b9050919050565b82818337600083830152505050565b60005b838110156121d25780820151818401526020810190506121b7565b838111156121e1576000848401525b50505050565b600060028204905060018216806121ff57607f821691505b6020821081141561221357612212612291565b5b50919050565b600061222482612165565b91507fffffffffffffffffffffffffffffffffffffffffffffffffffffffffffffffff82141561225757612256612262565b5b600182019050919050565b7f4e487b7100000000000000000000000000000000000000000000000000000000600052601160045260246000fd5b7f4e487b7100000000000000000000000000000000000000000000000000000000600052602260045260246000fd5b7f4e487b7100000000000000000000000000000000000000000000000000000000600052604160045260246000fd5b6000601f19601f8301169050919050565b60008160011c9050919050565b61231681612121565b811461232157600080fd5b50565b61232d81612133565b811461233857600080fd5b50565b61234481612165565b811461234f57600080fd5b5056fea2646970667358221220f30474b7387932da19b7ecd7ab29b69fd3c89b32b836912d23d47885f115d91664736f6c63430008000033",
  "linkReferences": {},
  "deployedLinkReferences": {}
}