{
  "_format": "hh-sol-artifact-1",
  "contractName": "Employer",
  "sourceName": "contracts/Employer.sol",
  "abi": [
    {
      "inputs": [],
      "stateMutability": "payable",
      "type": "constructor"
    },
    {
      "anonymous": false,
      "inputs": [
        {
          "indexed": false,
          "internalType": "address",
          "name": "sender",
          "type": "address"
        },
        {
          "indexed": false,
          "internalType": "uint256",
          "name": "amount",
          "type": "uint256"
        },
        {
          "indexed": false,
          "internalType": "uint256",
          "name": "balance",
          "type": "uint256"
        }
      ],
      "name": "Deposit",
      "type": "event"
    },
    {
      "anonymous": false,
      "inputs": [
        {
          "indexed": false,
          "internalType": "address",
          "name": "to",
          "type": "address"
        },
        {
          "indexed": false,
          "internalType": "uint256",
          "name": "amount",
          "type": "uint256"
        },
        {
          "indexed": false,
          "internalType": "uint256",
          "name": "balance",
          "type": "uint256"
        }
      ],
      "name": "Transfer",
      "type": "event"
    },
    {
      "anonymous": false,
      "inputs": [
        {
          "indexed": false,
          "internalType": "uint256",
          "name": "amount",
          "type": "uint256"
        },
        {
          "indexed": false,
          "internalType": "uint256",
          "name": "balance",
          "type": "uint256"
        }
      ],
      "name": "Withdraw",
      "type": "event"
    },
    {
      "inputs": [],
      "name": "_to",
      "outputs": [
        {
          "internalType": "address payable",
          "name": "",
          "type": "address"
        }
      ],
      "stateMutability": "view",
      "type": "function"
    },
    {
      "inputs": [
        {
          "internalType": "address",
          "name": "_address",
          "type": "address"
        },
        {
          "internalType": "string",
          "name": "distance",
          "type": "string"
        },
        {
          "internalType": "string",
          "name": "fetchedHour",
          "type": "string"
        }
      ],
      "name": "contractCondition",
      "outputs": [],
      "stateMutability": "nonpayable",
      "type": "function"
    },
    {
      "inputs": [],
      "name": "countEmployees",
      "outputs": [
        {
          "internalType": "uint256",
          "name": "",
          "type": "uint256"
        }
      ],
      "stateMutability": "view",
      "type": "function"
    },
    {
      "inputs": [],
      "name": "deposit",
      "outputs": [],
      "stateMutability": "payable",
      "type": "function"
    },
    {
      "inputs": [
        {
          "internalType": "uint256",
          "name": "",
          "type": "uint256"
        }
      ],
      "name": "employeeAccts",
      "outputs": [
        {
          "internalType": "address",
          "name": "",
          "type": "address"
        }
      ],
      "stateMutability": "view",
      "type": "function"
    },
    {
      "inputs": [],
      "name": "getAllEmployees",
      "outputs": [
        {
          "internalType": "address[]",
          "name": "",
          "type": "address[]"
        }
      ],
      "stateMutability": "view",
      "type": "function"
    },
    {
      "inputs": [],
      "name": "getBalance",
      "outputs": [
        {
          "internalType": "uint256",
          "name": "",
          "type": "uint256"
        }
      ],
      "stateMutability": "view",
      "type": "function"
    },
    {
      "inputs": [
        {
          "internalType": "address",
          "name": "_address",
          "type": "address"
        }
      ],
      "name": "getEmployee",
      "outputs": [
        {
          "internalType": "string",
          "name": "",
          "type": "string"
        },
        {
          "internalType": "string",
          "name": "",
          "type": "string"
        },
        {
          "internalType": "string",
          "name": "",
          "type": "string"
        },
        {
          "internalType": "string",
          "name": "",
          "type": "string"
        },
        {
          "internalType": "string",
          "name": "",
          "type": "string"
        },
        {
          "internalType": "string",
          "name": "",
          "type": "string"
        }
      ],
      "stateMutability": "view",
      "type": "function"
    },
    {
      "inputs": [],
      "name": "getOwedAmount",
      "outputs": [
        {
          "internalType": "uint256",
          "name": "",
          "type": "uint256"
        }
      ],
      "stateMutability": "view",
      "type": "function"
    },
    {
      "inputs": [
        {
          "internalType": "address",
          "name": "_address",
          "type": "address"
        }
      ],
      "name": "getResults",
      "outputs": [
        {
          "components": [
            {
              "internalType": "string",
              "name": "status",
              "type": "string"
            }
          ],
          "internalType": "struct Employer.Output",
          "name": "",
          "type": "tuple"
        }
      ],
      "stateMutability": "view",
      "type": "function"
    },
    {
      "inputs": [],
      "name": "notPayable",
      "outputs": [],
      "stateMutability": "nonpayable",
      "type": "function"
    },
    {
      "inputs": [],
      "name": "owner",
      "outputs": [
        {
          "internalType": "address payable",
          "name": "",
          "type": "address"
        }
      ],
      "stateMutability": "view",
      "type": "function"
    },
    {
      "inputs": [
        {
          "internalType": "address",
          "name": "_address",
          "type": "address"
        },
        {
          "internalType": "string",
          "name": "distance",
          "type": "string"
        },
        {
          "internalType": "string",
          "name": "fetchedHour",
          "type": "string"
        }
      ],
      "name": "setContract",
      "outputs": [
        {
          "internalType": "string",
          "name": "",
          "type": "string"
        }
      ],
      "stateMutability": "view",
      "type": "function"
    },
    {
      "inputs": [
        {
          "internalType": "address",
          "name": "_address",
          "type": "address"
        },
        {
          "internalType": "string",
          "name": "_empName",
          "type": "string"
        },
        {
          "internalType": "string",
          "name": "_long",
          "type": "string"
        },
        {
          "internalType": "string",
          "name": "_lat",
          "type": "string"
        },
        {
          "internalType": "string",
          "name": "_requiredDistance",
          "type": "string"
        },
        {
          "internalType": "string",
          "name": "_startHour",
          "type": "string"
        },
        {
          "internalType": "string",
          "name": "_endHour",
          "type": "string"
        }
      ],
      "name": "setEmployee",
      "outputs": [],
      "stateMutability": "nonpayable",
      "type": "function"
    },
    {
      "inputs": [
        {
          "internalType": "string",
          "name": "numString",
          "type": "string"
        }
      ],
      "name": "stnum",
      "outputs": [
        {
          "internalType": "uint256",
          "name": "",
          "type": "uint256"
        }
      ],
      "stateMutability": "pure",
      "type": "function"
    },
    {
      "inputs": [
        {
          "internalType": "address payable",
          "name": "_too",
          "type": "address"
        },
        {
          "internalType": "uint256",
          "name": "_amount",
          "type": "uint256"
        }
      ],
      "name": "transfer",
      "outputs": [],
      "stateMutability": "nonpayable",
      "type": "function"
    }
  ],
  "bytecode": "0x608060405266038d7ea4c68000600555336000806101000a81548173ffffffffffffffffffffffffffffffffffffffff021916908373ffffffffffffffffffffffffffffffffffffffff1602179055506122e78061005e6000396000f3fe6080604052600436106100f35760003560e01c80639094fd501161008a578063aabe289e11610059578063aabe289e14610331578063d0e30db01461035a578063e3366fed14610364578063f0f1682e1461038f576100f3565b80639094fd501461027557806392634916146102b2578063988c0bce146102dd578063a9059cbb14610308576100f3565b806350bc4a98116100c657806350bc4a98146101b957806359fd0723146101f6578063689d14b91461021f5780638da5cb5b1461024a576100f3565b806312065fe0146100f8578063273884bd1461012357806332648e091461013a5780634f0253961461017c575b600080fd5b34801561010457600080fd5b5061010d6103cc565b60405161011a9190611d3e565b60405180910390f35b34801561012f57600080fd5b506101386103d4565b005b34801561014657600080fd5b50610161600480360381019061015c919061167e565b6103d6565b60405161017396959493929190611c71565b60405180910390f35b34801561018857600080fd5b506101a3600480360381019061019e91906118d1565b6108c8565b6040516101b09190611b89565b60405180910390f35b3480156101c557600080fd5b506101e060048036038101906101db919061167e565b610907565b6040516101ed9190611d1c565b60405180910390f35b34801561020257600080fd5b5061021d60048036038101906102189190611762565b6109f2565b005b34801561022b57600080fd5b50610234610cc0565b6040516102419190611ba4565b60405180910390f35b34801561025657600080fd5b5061025f610ce6565b60405161026c9190611ba4565b60405180910390f35b34801561028157600080fd5b5061029c600480360381019061029791906116e3565b610d0a565b6040516102a99190611c4f565b60405180910390f35b3480156102be57600080fd5b506102c7611088565b6040516102d49190611d3e565b60405180910390f35b3480156102e957600080fd5b506102f2611092565b6040516102ff9190611d3e565b60405180910390f35b34801561031457600080fd5b5061032f600480360381019061032a91906116a7565b61109f565b005b34801561033d57600080fd5b50610358600480360381019061035391906116e3565b611125565b005b610362611376565b005b34801561037057600080fd5b506103796113b3565b6040516103869190611c2d565b60405180910390f35b34801561039b57600080fd5b506103b660048036038101906103b19190611890565b611441565b6040516103c39190611d3e565b60405180910390f35b600047905090565b565b606080606080606080600260008873ffffffffffffffffffffffffffffffffffffffff1673ffffffffffffffffffffffffffffffffffffffff168152602001908152602001600020600001600260008973ffffffffffffffffffffffffffffffffffffffff1673ffffffffffffffffffffffffffffffffffffffff168152602001908152602001600020600101600260008a73ffffffffffffffffffffffffffffffffffffffff1673ffffffffffffffffffffffffffffffffffffffff168152602001908152602001600020600201600260008b73ffffffffffffffffffffffffffffffffffffffff1673ffffffffffffffffffffffffffffffffffffffff168152602001908152602001600020600501600260008c73ffffffffffffffffffffffffffffffffffffffff1673ffffffffffffffffffffffffffffffffffffffff168152602001908152602001600020600601600260008d73ffffffffffffffffffffffffffffffffffffffff1673ffffffffffffffffffffffffffffffffffffffff16815260200190815260200160002060030185805461057790612146565b80601f01602080910402602001604051908101604052809291908181526020018280546105a390612146565b80156105f05780601f106105c5576101008083540402835291602001916105f0565b820191906000526020600020905b8154815290600101906020018083116105d357829003601f168201915b5050505050955084805461060390612146565b80601f016020809104026020016040519081016040528092919081815260200182805461062f90612146565b801561067c5780601f106106515761010080835404028352916020019161067c565b820191906000526020600020905b81548152906001019060200180831161065f57829003601f168201915b5050505050945083805461068f90612146565b80601f01602080910402602001604051908101604052809291908181526020018280546106bb90612146565b80156107085780601f106106dd57610100808354040283529160200191610708565b820191906000526020600020905b8154815290600101906020018083116106eb57829003601f168201915b5050505050935082805461071b90612146565b80601f016020809104026020016040519081016040528092919081815260200182805461074790612146565b80156107945780601f1061076957610100808354040283529160200191610794565b820191906000526020600020905b81548152906001019060200180831161077757829003601f168201915b505050505092508180546107a790612146565b80601f01602080910402602001604051908101604052809291908181526020018280546107d390612146565b80156108205780601f106107f557610100808354040283529160200191610820565b820191906000526020600020905b81548152906001019060200180831161080357829003601f168201915b5050505050915080805461083390612146565b80601f016020809104026020016040519081016040528092919081815260200182805461085f90612146565b80156108ac5780601f10610881576101008083540402835291602001916108ac565b820191906000526020600020905b81548152906001019060200180831161088f57829003601f168201915b5050505050905095509550955095509550955091939550919395565b600481815481106108d857600080fd5b906000526020600020016000915054906101000a900473ffffffffffffffffffffffffffffffffffffffff1681565b61090f611521565b600360008373ffffffffffffffffffffffffffffffffffffffff1673ffffffffffffffffffffffffffffffffffffffff16815260200190815260200160002060405180602001604052908160008201805461096990612146565b80601f016020809104026020016040519081016040528092919081815260200182805461099590612146565b80156109e25780601f106109b7576101008083540402835291602001916109e2565b820191906000526020600020905b8154815290600101906020018083116109c557829003601f168201915b5050505050815250509050919050565b60008054906101000a900473ffffffffffffffffffffffffffffffffffffffff1673ffffffffffffffffffffffffffffffffffffffff163373ffffffffffffffffffffffffffffffffffffffff1614610a4a57600080fd5b85600260008973ffffffffffffffffffffffffffffffffffffffff1673ffffffffffffffffffffffffffffffffffffffff1681526020019081526020016000206000019080519060200190610aa0929190611534565b5084600260008973ffffffffffffffffffffffffffffffffffffffff1673ffffffffffffffffffffffffffffffffffffffff1681526020019081526020016000206001019080519060200190610af7929190611534565b5083600260008973ffffffffffffffffffffffffffffffffffffffff1673ffffffffffffffffffffffffffffffffffffffff1681526020019081526020016000206002019080519060200190610b4e929190611534565b5082600260008973ffffffffffffffffffffffffffffffffffffffff1673ffffffffffffffffffffffffffffffffffffffff1681526020019081526020016000206003019080519060200190610ba5929190611534565b5081600260008973ffffffffffffffffffffffffffffffffffffffff1673ffffffffffffffffffffffffffffffffffffffff1681526020019081526020016000206005019080519060200190610bfc929190611534565b5080600260008973ffffffffffffffffffffffffffffffffffffffff1673ffffffffffffffffffffffffffffffffffffffff1681526020019081526020016000206006019080519060200190610c53929190611534565b506004879080600181540180825580915050600190039060005260206000200160009091909190916101000a81548173ffffffffffffffffffffffffffffffffffffffff021916908373ffffffffffffffffffffffffffffffffffffffff16021790555050505050505050565b600160009054906101000a900473ffffffffffffffffffffffffffffffffffffffff1681565b60008054906101000a900473ffffffffffffffffffffffffffffffffffffffff1681565b60606000610d1784611441565b90506000610d2484611441565b90506000610dfb600260008973ffffffffffffffffffffffffffffffffffffffff1673ffffffffffffffffffffffffffffffffffffffff1681526020019081526020016000206005018054610d7890612146565b80601f0160208091040260200160405190810160405280929190818152602001828054610da490612146565b8015610df15780601f10610dc657610100808354040283529160200191610df1565b820191906000526020600020905b815481529060010190602001808311610dd457829003601f168201915b5050505050611441565b90506000610ed2600260008a73ffffffffffffffffffffffffffffffffffffffff1673ffffffffffffffffffffffffffffffffffffffff1681526020019081526020016000206006018054610e4f90612146565b80601f0160208091040260200160405190810160405280929190818152602001828054610e7b90612146565b8015610ec85780601f10610e9d57610100808354040283529160200191610ec8565b820191906000526020600020905b815481529060010190602001808311610eab57829003601f168201915b5050505050611441565b90506000610fa9600260008b73ffffffffffffffffffffffffffffffffffffffff1673ffffffffffffffffffffffffffffffffffffffff1681526020019081526020016000206003018054610f2690612146565b80601f0160208091040260200160405190810160405280929190818152602001828054610f5290612146565b8015610f9f5780601f10610f7457610100808354040283529160200191610f9f565b820191906000526020600020905b815481529060010190602001808311610f8257829003601f168201915b5050505050611441565b9050838210158015610fbb5750828410155b610ffa576040517f08c379a0000000000000000000000000000000000000000000000000000000008152600401610ff190611cfc565b60405180910390fd5b848110611043576040518060400160405280600881526020017f417070726f76656400000000000000000000000000000000000000000000000081525095505050505050611081565b6040518060400160405280601181526020017f4f7574206f6620636f6d706c69616e6365000000000000000000000000000000815250955050505050505b9392505050565b6000600554905090565b6000600480549050905090565b8173ffffffffffffffffffffffffffffffffffffffff166108fc829081150290604051600060405180830381858888f193505050501580156110e5573d6000803e3d6000fd5b507f7fa9aafeb8bb803d77de5d84bc2f2edbd842ca91b20cd5020aa21dfe26ab0be982824760405161111993929190611bbf565b60405180910390a15050565b6000611132848484610d0a565b905060405160200161114390611b5f565b604051602081830303815290604052805190602001208160405160200161116a9190611b48565b604051602081830303815290604052805190602001201415611290576040518060400160405280600b81526020017f4163636570746564212121000000000000000000000000000000000000000000815250600360008673ffffffffffffffffffffffffffffffffffffffff1673ffffffffffffffffffffffffffffffffffffffff1681526020019081526020016000206000019080519060200190611211929190611534565b506000655047f5fe8c00905084600160006101000a81548173ffffffffffffffffffffffffffffffffffffffff021916908373ffffffffffffffffffffffffffffffffffffffff16021790555061128a600160009054906101000a900473ffffffffffffffffffffffffffffffffffffffff168261109f565b50611370565b60405160200161129f90611b74565b60405160208183030381529060405280519060200120816040516020016112c69190611b48565b60405160208183030381529060405280519060200120141561136f576040518060400160405280601181526020017f4f7574206f6620636f6d706c69616e6365000000000000000000000000000000815250600360008673ffffffffffffffffffffffffffffffffffffffff1673ffffffffffffffffffffffffffffffffffffffff168152602001908152602001600020600001908051906020019061136d929190611534565b505b5b50505050565b7f90890809c654f11d6e72a28fa60149770a0d11ec6c92319d6ceb2bb0a4ea1a153334476040516113a993929190611bf6565b60405180910390a1565b6060600480548060200260200160405190810160405280929190818152602001828054801561143757602002820191906000526020600020905b8160009054906101000a900473ffffffffffffffffffffffffffffffffffffffff1673ffffffffffffffffffffffffffffffffffffffff16815260200190600101908083116113ed575b5050505050905090565b60008060009050600083905060005b8151811015611516576000818351611468919061204c565b905060008383815181106114a5577f4e487b7100000000000000000000000000000000000000000000000000000000600052603260045260246000fd5b602001015160f81c60f81b905060008160f81c9050600060308260ff166114cc919061204c565b90506001846114db919061204c565b600a6114e79190611ed4565b816114f29190611ff2565b876114fd9190611e2b565b965050505050808061150e90612178565b915050611450565b508192505050919050565b6040518060200160405280606081525090565b82805461154090612146565b90600052602060002090601f01602090048101928261156257600085556115a9565b82601f1061157b57805160ff19168380011785556115a9565b828001600101855582156115a9579182015b828111156115a857825182559160200191906001019061158d565b5b5090506115b691906115ba565b5090565b5b808211156115d35760008160009055506001016115bb565b5090565b60006115ea6115e584611d8a565b611d59565b90508281526020810184848401111561160257600080fd5b61160d848285612104565b509392505050565b6000813590506116248161226c565b92915050565b60008135905061163981612283565b92915050565b600082601f83011261165057600080fd5b81356116608482602086016115d7565b91505092915050565b6000813590506116788161229a565b92915050565b60006020828403121561169057600080fd5b600061169e84828501611615565b91505092915050565b600080604083850312156116ba57600080fd5b60006116c88582860161162a565b92505060206116d985828601611669565b9150509250929050565b6000806000606084860312156116f857600080fd5b600061170686828701611615565b935050602084013567ffffffffffffffff81111561172357600080fd5b61172f8682870161163f565b925050604084013567ffffffffffffffff81111561174c57600080fd5b6117588682870161163f565b9150509250925092565b600080600080600080600060e0888a03121561177d57600080fd5b600061178b8a828b01611615565b975050602088013567ffffffffffffffff8111156117a857600080fd5b6117b48a828b0161163f565b965050604088013567ffffffffffffffff8111156117d157600080fd5b6117dd8a828b0161163f565b955050606088013567ffffffffffffffff8111156117fa57600080fd5b6118068a828b0161163f565b945050608088013567ffffffffffffffff81111561182357600080fd5b61182f8a828b0161163f565b93505060a088013567ffffffffffffffff81111561184c57600080fd5b6118588a828b0161163f565b92505060c088013567ffffffffffffffff81111561187557600080fd5b6118818a828b0161163f565b91505092959891949750929550565b6000602082840312156118a257600080fd5b600082013567ffffffffffffffff8111156118bc57600080fd5b6118c88482850161163f565b91505092915050565b6000602082840312156118e357600080fd5b60006118f184828501611669565b91505092915050565b60006119068383611930565b60208301905092915050565b61191b816120ce565b82525050565b61192a81612092565b82525050565b61193981612080565b82525050565b61194881612080565b82525050565b600061195982611dca565b6119638185611ded565b935061196e83611dba565b8060005b8381101561199f57815161198688826118fa565b975061199183611de0565b925050600181019050611972565b5085935050505092915050565b60006119b782611dd5565b6119c18185611dfe565b93506119d1818560208601612113565b6119da8161224e565b840191505092915050565b60006119f082611dd5565b6119fa8185611e0f565b9350611a0a818560208601612113565b611a138161224e565b840191505092915050565b6000611a2982611dd5565b611a338185611e20565b9350611a43818560208601612113565b80840191505092915050565b6000611a5c600883611e20565b91507f417070726f7665640000000000000000000000000000000000000000000000006000830152600882019050919050565b6000611a9c600b83611e0f565b91507f6f7574206f662074696d650000000000000000000000000000000000000000006000830152602082019050919050565b6000611adc601183611e20565b91507f4f7574206f6620636f6d706c69616e63650000000000000000000000000000006000830152601182019050919050565b60006020830160008301518482036000860152611b2c82826119ac565b9150508091505092915050565b611b42816120c4565b82525050565b6000611b548284611a1e565b915081905092915050565b6000611b6a82611a4f565b9150819050919050565b6000611b7f82611acf565b9150819050919050565b6000602082019050611b9e600083018461193f565b92915050565b6000602082019050611bb96000830184611921565b92915050565b6000606082019050611bd46000830186611912565b611be16020830185611b39565b611bee6040830184611b39565b949350505050565b6000606082019050611c0b600083018661193f565b611c186020830185611b39565b611c256040830184611b39565b949350505050565b60006020820190508181036000830152611c47818461194e565b905092915050565b60006020820190508181036000830152611c6981846119e5565b905092915050565b600060c0820190508181036000830152611c8b81896119e5565b90508181036020830152611c9f81886119e5565b90508181036040830152611cb381876119e5565b90508181036060830152611cc781866119e5565b90508181036080830152611cdb81856119e5565b905081810360a0830152611cef81846119e5565b9050979650505050505050565b60006020820190508181036000830152611d1581611a8f565b9050919050565b60006020820190508181036000830152611d368184611b0f565b905092915050565b6000602082019050611d536000830184611b39565b92915050565b6000604051905081810181811067ffffffffffffffff82111715611d8057611d7f61221f565b5b8060405250919050565b600067ffffffffffffffff821115611da557611da461221f565b5b601f19601f8301169050602081019050919050565b6000819050602082019050919050565b600081519050919050565b600081519050919050565b6000602082019050919050565b600082825260208201905092915050565b600082825260208201905092915050565b600082825260208201905092915050565b600081905092915050565b6000611e36826120c4565b9150611e41836120c4565b9250827fffffffffffffffffffffffffffffffffffffffffffffffffffffffffffffffff03821115611e7657611e756121c1565b5b828201905092915050565b6000808291508390505b6001851115611ecb57808604811115611ea757611ea66121c1565b5b6001851615611eb65780820291505b8081029050611ec48561225f565b9450611e8b565b94509492505050565b6000611edf826120c4565b9150611eea836120c4565b9250611f177fffffffffffffffffffffffffffffffffffffffffffffffffffffffffffffffff8484611f1f565b905092915050565b600082611f2f5760019050611feb565b81611f3d5760009050611feb565b8160018114611f535760028114611f5d57611f8c565b6001915050611feb565b60ff841115611f6f57611f6e6121c1565b5b8360020a915084821115611f8657611f856121c1565b5b50611feb565b5060208310610133831016604e8410600b8410161715611fc15782820a905083811115611fbc57611fbb6121c1565b5b611feb565b611fce8484846001611e81565b92509050818404811115611fe557611fe46121c1565b5b81810290505b9392505050565b6000611ffd826120c4565b9150612008836120c4565b9250817fffffffffffffffffffffffffffffffffffffffffffffffffffffffffffffffff0483118215151615612041576120406121c1565b5b828202905092915050565b6000612057826120c4565b9150612062836120c4565b925082821015612075576120746121c1565b5b828203905092915050565b600061208b826120a4565b9050919050565b600061209d826120a4565b9050919050565b600073ffffffffffffffffffffffffffffffffffffffff82169050919050565b6000819050919050565b60006120d9826120e0565b9050919050565b60006120eb826120f2565b9050919050565b60006120fd826120a4565b9050919050565b82818337600083830152505050565b60005b83811015612131578082015181840152602081019050612116565b83811115612140576000848401525b50505050565b6000600282049050600182168061215e57607f821691505b60208210811415612172576121716121f0565b5b50919050565b6000612183826120c4565b91507fffffffffffffffffffffffffffffffffffffffffffffffffffffffffffffffff8214156121b6576121b56121c1565b5b600182019050919050565b7f4e487b7100000000000000000000000000000000000000000000000000000000600052601160045260246000fd5b7f4e487b7100000000000000000000000000000000000000000000000000000000600052602260045260246000fd5b7f4e487b7100000000000000000000000000000000000000000000000000000000600052604160045260246000fd5b6000601f19601f8301169050919050565b60008160011c9050919050565b61227581612080565b811461228057600080fd5b50565b61228c81612092565b811461229757600080fd5b50565b6122a3816120c4565b81146122ae57600080fd5b5056fea26469706673582212203575df47f6c56af3c0f2ef4c766d8ed3755665895adde1f10ce6f493a120492964736f6c63430008000033",
  "linkReferences": {},
  "deployedLinkReferences": {}
}