{
  "_format": "hh-sol-artifact-1",
  "contractName": "Employer",
  "sourceName": "contracts/Employer.sol",
  "abi": [
    {
      "inputs": [],
      "stateMutability": "nonpayable",
      "type": "constructor"
    },
    {
      "inputs": [],
      "name": "countEmployees",
      "outputs": [
        {
          "internalType": "uint256",
          "name": "",
          "type": "uint256"
        }
      ],
      "stateMutability": "view",
      "type": "function"
    },
    {
      "inputs": [
        {
          "internalType": "uint256",
          "name": "",
          "type": "uint256"
        }
      ],
      "name": "employeeAccts",
      "outputs": [
        {
          "internalType": "address",
          "name": "",
          "type": "address"
        }
      ],
      "stateMutability": "view",
      "type": "function"
    },
    {
      "inputs": [],
      "name": "getAllEmployees",
      "outputs": [
        {
          "internalType": "address[]",
          "name": "",
          "type": "address[]"
        }
      ],
      "stateMutability": "view",
      "type": "function"
    },
    {
      "inputs": [
        {
          "internalType": "address",
          "name": "_address",
          "type": "address"
        }
      ],
      "name": "getEmployee",
      "outputs": [
        {
          "internalType": "string",
          "name": "",
          "type": "string"
        },
        {
          "internalType": "string",
          "name": "",
          "type": "string"
        },
        {
          "internalType": "string",
          "name": "",
          "type": "string"
        },
        {
          "internalType": "string",
          "name": "",
          "type": "string"
        },
        {
          "internalType": "string",
          "name": "",
          "type": "string"
        },
        {
          "internalType": "string",
          "name": "",
          "type": "string"
        }
      ],
      "stateMutability": "view",
      "type": "function"
    },
    {
      "inputs": [
        {
          "internalType": "address",
          "name": "_address",
          "type": "address"
        },
        {
          "internalType": "string",
          "name": "distance",
          "type": "string"
        },
        {
          "internalType": "string",
          "name": "fetchedHour",
          "type": "string"
        }
      ],
      "name": "setContract",
      "outputs": [
        {
          "internalType": "string",
          "name": "",
          "type": "string"
        }
      ],
      "stateMutability": "view",
      "type": "function"
    },
    {
      "inputs": [
        {
          "internalType": "address",
          "name": "_address",
          "type": "address"
        },
        {
          "internalType": "string",
          "name": "_empName",
          "type": "string"
        },
        {
          "internalType": "string",
          "name": "_long",
          "type": "string"
        },
        {
          "internalType": "string",
          "name": "_lat",
          "type": "string"
        },
        {
          "internalType": "string",
          "name": "_requiredDistance",
          "type": "string"
        },
        {
          "internalType": "string",
          "name": "_startHour",
          "type": "string"
        },
        {
          "internalType": "string",
          "name": "_endHour",
          "type": "string"
        }
      ],
      "name": "setEmployee",
      "outputs": [],
      "stateMutability": "nonpayable",
      "type": "function"
    },
    {
      "inputs": [
        {
          "internalType": "string",
          "name": "numString",
          "type": "string"
        }
      ],
      "name": "stnum",
      "outputs": [
        {
          "internalType": "uint256",
          "name": "",
          "type": "uint256"
        }
      ],
      "stateMutability": "pure",
      "type": "function"
    }
  ],
  "bytecode": "0x608060405234801561001057600080fd5b50336000806101000a81548173ffffffffffffffffffffffffffffffffffffffff021916908373ffffffffffffffffffffffffffffffffffffffff1602179055506118ca806100606000396000f3fe608060405234801561001057600080fd5b506004361061007d5760003560e01c80639094fd501161005b5780639094fd5014610103578063988c0bce14610133578063e3366fed14610151578063f0f1682e1461016f5761007d565b806332648e09146100825780634f025396146100b757806359fd0723146100e7575b600080fd5b61009c60048036038101906100979190610f96565b61019f565b6040516100ae96959493929190611311565b60405180910390f35b6100d160048036038101906100cc91906111ad565b610691565b6040516100de91906112b2565b60405180910390f35b61010160048036038101906100fc919061103e565b6106d0565b005b61011d60048036038101906101189190610fbf565b61099e565b60405161012a91906112ef565b60405180910390f35b61013b610ce6565b604051610148919061139c565b60405180910390f35b610159610cf3565b60405161016691906112cd565b60405180910390f35b6101896004803603810190610184919061116c565b610d81565b604051610196919061139c565b60405180910390f35b606080606080606080600160008873ffffffffffffffffffffffffffffffffffffffff1673ffffffffffffffffffffffffffffffffffffffff168152602001908152602001600020600001600160008973ffffffffffffffffffffffffffffffffffffffff1673ffffffffffffffffffffffffffffffffffffffff168152602001908152602001600020600101600160008a73ffffffffffffffffffffffffffffffffffffffff1673ffffffffffffffffffffffffffffffffffffffff168152602001908152602001600020600201600160008b73ffffffffffffffffffffffffffffffffffffffff1673ffffffffffffffffffffffffffffffffffffffff168152602001908152602001600020600501600160008c73ffffffffffffffffffffffffffffffffffffffff1673ffffffffffffffffffffffffffffffffffffffff168152602001908152602001600020600601600160008d73ffffffffffffffffffffffffffffffffffffffff1673ffffffffffffffffffffffffffffffffffffffff16815260200190815260200160002060030185805461034090611740565b80601f016020809104026020016040519081016040528092919081815260200182805461036c90611740565b80156103b95780601f1061038e576101008083540402835291602001916103b9565b820191906000526020600020905b81548152906001019060200180831161039c57829003601f168201915b505050505095508480546103cc90611740565b80601f01602080910402602001604051908101604052809291908181526020018280546103f890611740565b80156104455780601f1061041a57610100808354040283529160200191610445565b820191906000526020600020905b81548152906001019060200180831161042857829003601f168201915b5050505050945083805461045890611740565b80601f016020809104026020016040519081016040528092919081815260200182805461048490611740565b80156104d15780601f106104a6576101008083540402835291602001916104d1565b820191906000526020600020905b8154815290600101906020018083116104b457829003601f168201915b505050505093508280546104e490611740565b80601f016020809104026020016040519081016040528092919081815260200182805461051090611740565b801561055d5780601f106105325761010080835404028352916020019161055d565b820191906000526020600020905b81548152906001019060200180831161054057829003601f168201915b5050505050925081805461057090611740565b80601f016020809104026020016040519081016040528092919081815260200182805461059c90611740565b80156105e95780601f106105be576101008083540402835291602001916105e9565b820191906000526020600020905b8154815290600101906020018083116105cc57829003601f168201915b505050505091508080546105fc90611740565b80601f016020809104026020016040519081016040528092919081815260200182805461062890611740565b80156106755780601f1061064a57610100808354040283529160200191610675565b820191906000526020600020905b81548152906001019060200180831161065857829003601f168201915b5050505050905095509550955095509550955091939550919395565b600281815481106106a157600080fd5b906000526020600020016000915054906101000a900473ffffffffffffffffffffffffffffffffffffffff1681565b60008054906101000a900473ffffffffffffffffffffffffffffffffffffffff1673ffffffffffffffffffffffffffffffffffffffff163373ffffffffffffffffffffffffffffffffffffffff161461072857600080fd5b85600160008973ffffffffffffffffffffffffffffffffffffffff1673ffffffffffffffffffffffffffffffffffffffff168152602001908152602001600020600001908051906020019061077e929190610e61565b5084600160008973ffffffffffffffffffffffffffffffffffffffff1673ffffffffffffffffffffffffffffffffffffffff16815260200190815260200160002060010190805190602001906107d5929190610e61565b5083600160008973ffffffffffffffffffffffffffffffffffffffff1673ffffffffffffffffffffffffffffffffffffffff168152602001908152602001600020600201908051906020019061082c929190610e61565b5082600160008973ffffffffffffffffffffffffffffffffffffffff1673ffffffffffffffffffffffffffffffffffffffff1681526020019081526020016000206003019080519060200190610883929190610e61565b5081600160008973ffffffffffffffffffffffffffffffffffffffff1673ffffffffffffffffffffffffffffffffffffffff16815260200190815260200160002060050190805190602001906108da929190610e61565b5080600160008973ffffffffffffffffffffffffffffffffffffffff1673ffffffffffffffffffffffffffffffffffffffff1681526020019081526020016000206006019080519060200190610931929190610e61565b506002879080600181540180825580915050600190039060005260206000200160009091909190916101000a81548173ffffffffffffffffffffffffffffffffffffffff021916908373ffffffffffffffffffffffffffffffffffffffff16021790555050505050505050565b606060006109ab84610d81565b905060006109b884610d81565b90506000610a8f600160008973ffffffffffffffffffffffffffffffffffffffff1673ffffffffffffffffffffffffffffffffffffffff1681526020019081526020016000206005018054610a0c90611740565b80601f0160208091040260200160405190810160405280929190818152602001828054610a3890611740565b8015610a855780601f10610a5a57610100808354040283529160200191610a85565b820191906000526020600020905b815481529060010190602001808311610a6857829003601f168201915b5050505050610d81565b90506000610b66600160008a73ffffffffffffffffffffffffffffffffffffffff1673ffffffffffffffffffffffffffffffffffffffff1681526020019081526020016000206006018054610ae390611740565b80601f0160208091040260200160405190810160405280929190818152602001828054610b0f90611740565b8015610b5c5780601f10610b3157610100808354040283529160200191610b5c565b820191906000526020600020905b815481529060010190602001808311610b3f57829003601f168201915b5050505050610d81565b90506000610c3d600160008b73ffffffffffffffffffffffffffffffffffffffff1673ffffffffffffffffffffffffffffffffffffffff1681526020019081526020016000206003018054610bba90611740565b80601f0160208091040260200160405190810160405280929190818152602001828054610be690611740565b8015610c335780601f10610c0857610100808354040283529160200191610c33565b820191906000526020600020905b815481529060010190602001808311610c1657829003601f168201915b5050505050610d81565b9050838210158015610c4f5750828410155b610c5857600080fd5b848110610ca1576040518060400160405280600881526020017f417070726f76656400000000000000000000000000000000000000000000000081525095505050505050610cdf565b6040518060400160405280601181526020017f4f7574206f6620636f6d706c69616e6365000000000000000000000000000000815250955050505050505b9392505050565b6000600280549050905090565b60606002805480602002602001604051908101604052809291908181526020018280548015610d7757602002820191906000526020600020905b8160009054906101000a900473ffffffffffffffffffffffffffffffffffffffff1673ffffffffffffffffffffffffffffffffffffffff1681526020019060010190808311610d2d575b5050505050905090565b60008060009050600083905060005b8151811015610e56576000818351610da8919061168e565b90506000838381518110610de5577f4e487b7100000000000000000000000000000000000000000000000000000000600052603260045260246000fd5b602001015160f81c60f81b905060008160f81c9050600060308260ff16610e0c919061168e565b9050600184610e1b919061168e565b600a610e279190611516565b81610e329190611634565b87610e3d919061146d565b9650505050508080610e4e90611772565b915050610d90565b508192505050919050565b828054610e6d90611740565b90600052602060002090601f016020900481019282610e8f5760008555610ed6565b82601f10610ea857805160ff1916838001178555610ed6565b82800160010185558215610ed6579182015b82811115610ed5578251825591602001919060010190610eba565b5b509050610ee39190610ee7565b5090565b5b80821115610f00576000816000905550600101610ee8565b5090565b6000610f17610f12846113e8565b6113b7565b905082815260208101848484011115610f2f57600080fd5b610f3a8482856116fe565b509392505050565b600081359050610f5181611866565b92915050565b600082601f830112610f6857600080fd5b8135610f78848260208601610f04565b91505092915050565b600081359050610f908161187d565b92915050565b600060208284031215610fa857600080fd5b6000610fb684828501610f42565b91505092915050565b600080600060608486031215610fd457600080fd5b6000610fe286828701610f42565b935050602084013567ffffffffffffffff811115610fff57600080fd5b61100b86828701610f57565b925050604084013567ffffffffffffffff81111561102857600080fd5b61103486828701610f57565b9150509250925092565b600080600080600080600060e0888a03121561105957600080fd5b60006110678a828b01610f42565b975050602088013567ffffffffffffffff81111561108457600080fd5b6110908a828b01610f57565b965050604088013567ffffffffffffffff8111156110ad57600080fd5b6110b98a828b01610f57565b955050606088013567ffffffffffffffff8111156110d657600080fd5b6110e28a828b01610f57565b945050608088013567ffffffffffffffff8111156110ff57600080fd5b61110b8a828b01610f57565b93505060a088013567ffffffffffffffff81111561112857600080fd5b6111348a828b01610f57565b92505060c088013567ffffffffffffffff81111561115157600080fd5b61115d8a828b01610f57565b91505092959891949750929550565b60006020828403121561117e57600080fd5b600082013567ffffffffffffffff81111561119857600080fd5b6111a484828501610f57565b91505092915050565b6000602082840312156111bf57600080fd5b60006111cd84828501610f81565b91505092915050565b60006111e283836111ee565b60208301905092915050565b6111f7816116c2565b82525050565b611206816116c2565b82525050565b600061121782611428565b611221818561144b565b935061122c83611418565b8060005b8381101561125d57815161124488826111d6565b975061124f8361143e565b925050600181019050611230565b5085935050505092915050565b600061127582611433565b61127f818561145c565b935061128f81856020860161170d565b61129881611848565b840191505092915050565b6112ac816116f4565b82525050565b60006020820190506112c760008301846111fd565b92915050565b600060208201905081810360008301526112e7818461120c565b905092915050565b60006020820190508181036000830152611309818461126a565b905092915050565b600060c082019050818103600083015261132b818961126a565b9050818103602083015261133f818861126a565b90508181036040830152611353818761126a565b90508181036060830152611367818661126a565b9050818103608083015261137b818561126a565b905081810360a083015261138f818461126a565b9050979650505050505050565b60006020820190506113b160008301846112a3565b92915050565b6000604051905081810181811067ffffffffffffffff821117156113de576113dd611819565b5b8060405250919050565b600067ffffffffffffffff82111561140357611402611819565b5b601f19601f8301169050602081019050919050565b6000819050602082019050919050565b600081519050919050565b600081519050919050565b6000602082019050919050565b600082825260208201905092915050565b600082825260208201905092915050565b6000611478826116f4565b9150611483836116f4565b9250827fffffffffffffffffffffffffffffffffffffffffffffffffffffffffffffffff038211156114b8576114b76117bb565b5b828201905092915050565b6000808291508390505b600185111561150d578086048111156114e9576114e86117bb565b5b60018516156114f85780820291505b808102905061150685611859565b94506114cd565b94509492505050565b6000611521826116f4565b915061152c836116f4565b92506115597fffffffffffffffffffffffffffffffffffffffffffffffffffffffffffffffff8484611561565b905092915050565b600082611571576001905061162d565b8161157f576000905061162d565b8160018114611595576002811461159f576115ce565b600191505061162d565b60ff8411156115b1576115b06117bb565b5b8360020a9150848211156115c8576115c76117bb565b5b5061162d565b5060208310610133831016604e8410600b84101617156116035782820a9050838111156115fe576115fd6117bb565b5b61162d565b61161084848460016114c3565b92509050818404811115611627576116266117bb565b5b81810290505b9392505050565b600061163f826116f4565b915061164a836116f4565b9250817fffffffffffffffffffffffffffffffffffffffffffffffffffffffffffffffff0483118215151615611683576116826117bb565b5b828202905092915050565b6000611699826116f4565b91506116a4836116f4565b9250828210156116b7576116b66117bb565b5b828203905092915050565b60006116cd826116d4565b9050919050565b600073ffffffffffffffffffffffffffffffffffffffff82169050919050565b6000819050919050565b82818337600083830152505050565b60005b8381101561172b578082015181840152602081019050611710565b8381111561173a576000848401525b50505050565b6000600282049050600182168061175857607f821691505b6020821081141561176c5761176b6117ea565b5b50919050565b600061177d826116f4565b91507fffffffffffffffffffffffffffffffffffffffffffffffffffffffffffffffff8214156117b0576117af6117bb565b5b600182019050919050565b7f4e487b7100000000000000000000000000000000000000000000000000000000600052601160045260246000fd5b7f4e487b7100000000000000000000000000000000000000000000000000000000600052602260045260246000fd5b7f4e487b7100000000000000000000000000000000000000000000000000000000600052604160045260246000fd5b6000601f19601f8301169050919050565b60008160011c9050919050565b61186f816116c2565b811461187a57600080fd5b50565b611886816116f4565b811461189157600080fd5b5056fea26469706673582212209b41763119c4779fd363ad54d345a1bb566fcc6edd10c06b81dc59017948d3ae64736f6c63430008000033",
  "linkReferences": {},
  "deployedLinkReferences": {}
}