{
  "_format": "hh-sol-artifact-1",
  "contractName": "Employer",
  "sourceName": "contracts/Employer.sol",
  "abi": [
    {
      "inputs": [],
      "stateMutability": "payable",
      "type": "constructor"
    },
    {
      "anonymous": false,
      "inputs": [
        {
          "indexed": false,
          "internalType": "address",
          "name": "sender",
          "type": "address"
        },
        {
          "indexed": false,
          "internalType": "uint256",
          "name": "amount",
          "type": "uint256"
        },
        {
          "indexed": false,
          "internalType": "uint256",
          "name": "balance",
          "type": "uint256"
        }
      ],
      "name": "Deposit",
      "type": "event"
    },
    {
      "anonymous": false,
      "inputs": [
        {
          "indexed": false,
          "internalType": "address",
          "name": "to",
          "type": "address"
        },
        {
          "indexed": false,
          "internalType": "uint256",
          "name": "amount",
          "type": "uint256"
        },
        {
          "indexed": false,
          "internalType": "uint256",
          "name": "balance",
          "type": "uint256"
        }
      ],
      "name": "Transfer",
      "type": "event"
    },
    {
      "anonymous": false,
      "inputs": [
        {
          "indexed": false,
          "internalType": "uint256",
          "name": "amount",
          "type": "uint256"
        },
        {
          "indexed": false,
          "internalType": "uint256",
          "name": "balance",
          "type": "uint256"
        }
      ],
      "name": "Withdraw",
      "type": "event"
    },
    {
      "inputs": [
        {
          "internalType": "address",
          "name": "_address",
          "type": "address"
        },
        {
          "internalType": "string",
          "name": "distance",
          "type": "string"
        },
        {
          "internalType": "string",
          "name": "fetchedHour",
          "type": "string"
        }
      ],
      "name": "contractCondition",
      "outputs": [],
      "stateMutability": "nonpayable",
      "type": "function"
    },
    {
      "inputs": [],
      "name": "countEmployees",
      "outputs": [
        {
          "internalType": "uint256",
          "name": "",
          "type": "uint256"
        }
      ],
      "stateMutability": "view",
      "type": "function"
    },
    {
      "inputs": [],
      "name": "deposit",
      "outputs": [],
      "stateMutability": "payable",
      "type": "function"
    },
    {
      "inputs": [
        {
          "internalType": "uint256",
          "name": "",
          "type": "uint256"
        }
      ],
      "name": "employeeAccts",
      "outputs": [
        {
          "internalType": "address",
          "name": "",
          "type": "address"
        }
      ],
      "stateMutability": "view",
      "type": "function"
    },
    {
      "inputs": [
        {
          "internalType": "address",
          "name": "_address",
          "type": "address"
        },
        {
          "internalType": "string",
          "name": "_longitude",
          "type": "string"
        },
        {
          "internalType": "string",
          "name": "_latitude",
          "type": "string"
        }
      ],
      "name": "geoloc",
      "outputs": [
        {
          "internalType": "string",
          "name": "",
          "type": "string"
        }
      ],
      "stateMutability": "view",
      "type": "function"
    },
    {
      "inputs": [],
      "name": "getAllEmployees",
      "outputs": [
        {
          "internalType": "address[]",
          "name": "",
          "type": "address[]"
        }
      ],
      "stateMutability": "view",
      "type": "function"
    },
    {
      "inputs": [],
      "name": "getBalance",
      "outputs": [
        {
          "internalType": "uint256",
          "name": "",
          "type": "uint256"
        }
      ],
      "stateMutability": "view",
      "type": "function"
    },
    {
      "inputs": [
        {
          "internalType": "address",
          "name": "_address",
          "type": "address"
        }
      ],
      "name": "getEmployee",
      "outputs": [
        {
          "internalType": "string",
          "name": "",
          "type": "string"
        },
        {
          "internalType": "string",
          "name": "",
          "type": "string"
        },
        {
          "internalType": "string",
          "name": "",
          "type": "string"
        },
        {
          "internalType": "string",
          "name": "",
          "type": "string"
        },
        {
          "internalType": "string",
          "name": "",
          "type": "string"
        },
        {
          "internalType": "string",
          "name": "",
          "type": "string"
        }
      ],
      "stateMutability": "view",
      "type": "function"
    },
    {
      "inputs": [
        {
          "internalType": "address",
          "name": "_address",
          "type": "address"
        }
      ],
      "name": "getResults",
      "outputs": [
        {
          "components": [
            {
              "internalType": "string",
              "name": "accept",
              "type": "string"
            },
            {
              "internalType": "string",
              "name": "decline",
              "type": "string"
            }
          ],
          "internalType": "struct Employer.Output",
          "name": "",
          "type": "tuple"
        }
      ],
      "stateMutability": "view",
      "type": "function"
    },
    {
      "inputs": [],
      "name": "notPayable",
      "outputs": [],
      "stateMutability": "nonpayable",
      "type": "function"
    },
    {
      "inputs": [],
      "name": "owner",
      "outputs": [
        {
          "internalType": "address payable",
          "name": "",
          "type": "address"
        }
      ],
      "stateMutability": "view",
      "type": "function"
    },
    {
      "inputs": [
        {
          "internalType": "address",
          "name": "_address",
          "type": "address"
        },
        {
          "internalType": "string",
          "name": "distance",
          "type": "string"
        },
        {
          "internalType": "string",
          "name": "fetchedHour",
          "type": "string"
        }
      ],
      "name": "setContract",
      "outputs": [
        {
          "internalType": "string",
          "name": "",
          "type": "string"
        }
      ],
      "stateMutability": "view",
      "type": "function"
    },
    {
      "inputs": [
        {
          "internalType": "address",
          "name": "_address",
          "type": "address"
        },
        {
          "internalType": "string",
          "name": "_empName",
          "type": "string"
        },
        {
          "internalType": "string",
          "name": "_long",
          "type": "string"
        },
        {
          "internalType": "string",
          "name": "_lat",
          "type": "string"
        },
        {
          "internalType": "string",
          "name": "_requiredDistance",
          "type": "string"
        },
        {
          "internalType": "string",
          "name": "_startHour",
          "type": "string"
        },
        {
          "internalType": "string",
          "name": "_endHour",
          "type": "string"
        }
      ],
      "name": "setEmployee",
      "outputs": [],
      "stateMutability": "nonpayable",
      "type": "function"
    },
    {
      "inputs": [
        {
          "internalType": "string",
          "name": "numString",
          "type": "string"
        }
      ],
      "name": "stnum",
      "outputs": [
        {
          "internalType": "uint256",
          "name": "",
          "type": "uint256"
        }
      ],
      "stateMutability": "pure",
      "type": "function"
    },
    {
      "inputs": [
        {
          "internalType": "address payable",
          "name": "_to",
          "type": "address"
        },
        {
          "internalType": "uint256",
          "name": "_amount",
          "type": "uint256"
        }
      ],
      "name": "transfer",
      "outputs": [],
      "stateMutability": "nonpayable",
      "type": "function"
    },
    {
      "inputs": [
        {
          "internalType": "uint256",
          "name": "_amount",
          "type": "uint256"
        }
      ],
      "name": "withdraw",
      "outputs": [],
      "stateMutability": "nonpayable",
      "type": "function"
    }
  ],
  "bytecode": "0x6080604052336000806101000a81548173ffffffffffffffffffffffffffffffffffffffff021916908373ffffffffffffffffffffffffffffffffffffffff1602179055506127a2806100536000396000f3fe6080604052600436106100f35760003560e01c80639094fd501161008a578063b31e251911610059578063b31e25191461032d578063d0e30db01461036a578063e3366fed14610374578063f0f1682e1461039f576100f3565b80639094fd5014610273578063988c0bce146102b0578063a9059cbb146102db578063aabe289e14610304576100f3565b80634f025396116100c65780634f025396146101a557806350bc4a98146101e257806359fd07231461021f5780638da5cb5b14610248576100f3565b806312065fe0146100f8578063273884bd146101235780632e1a7d4d1461013a57806332648e0914610163575b600080fd5b34801561010457600080fd5b5061010d6103dc565b60405161011a91906121bb565b60405180910390f35b34801561012f57600080fd5b506101386103e4565b005b34801561014657600080fd5b50610161600480360381019061015c9190611c3e565b6103e6565b005b34801561016f57600080fd5b5061018a600480360381019061018591906119eb565b610517565b60405161019c969594939291906120ce565b60405180910390f35b3480156101b157600080fd5b506101cc60048036038101906101c79190611c3e565b610a09565b6040516101d99190611fe6565b60405180910390f35b3480156101ee57600080fd5b50610209600480360381019061020491906119eb565b610a48565b6040516102169190612199565b60405180910390f35b34801561022b57600080fd5b5061024660048036038101906102419190611acf565b610bc5565b005b34801561025457600080fd5b5061025d610e93565b60405161026a9190612001565b60405180910390f35b34801561027f57600080fd5b5061029a60048036038101906102959190611a50565b610eb7565b6040516102a791906120ac565b60405180910390f35b3480156102bc57600080fd5b506102c5611235565b6040516102d291906121bb565b60405180910390f35b3480156102e757600080fd5b5061030260048036038101906102fd9190611a14565b611242565b005b34801561031057600080fd5b5061032b60048036038101906103269190611a50565b611356565b005b34801561033957600080fd5b50610354600480360381019061034f9190611a50565b61152e565b60405161036191906120ac565b60405180910390f35b6103726116dc565b005b34801561038057600080fd5b50610389611719565b604051610396919061208a565b60405180910390f35b3480156103ab57600080fd5b506103c660048036038101906103c19190611bfd565b6117a7565b6040516103d391906121bb565b60405180910390f35b600047905090565b565b60008054906101000a900473ffffffffffffffffffffffffffffffffffffffff1673ffffffffffffffffffffffffffffffffffffffff163373ffffffffffffffffffffffffffffffffffffffff1614610474576040517f08c379a000000000000000000000000000000000000000000000000000000000815260040161046b90612179565b60405180910390fd5b60008054906101000a900473ffffffffffffffffffffffffffffffffffffffff1673ffffffffffffffffffffffffffffffffffffffff166108fc829081150290604051600060405180830381858888f193505050501580156104da573d6000803e3d6000fd5b507f56ca301a9219608c91e7bcee90e083c19671d2cdcc96752c7af291cee5f9c8c8814760405161050c9291906121d6565b60405180910390a150565b606080606080606080600160008873ffffffffffffffffffffffffffffffffffffffff1673ffffffffffffffffffffffffffffffffffffffff168152602001908152602001600020600001600160008973ffffffffffffffffffffffffffffffffffffffff1673ffffffffffffffffffffffffffffffffffffffff168152602001908152602001600020600101600160008a73ffffffffffffffffffffffffffffffffffffffff1673ffffffffffffffffffffffffffffffffffffffff168152602001908152602001600020600201600160008b73ffffffffffffffffffffffffffffffffffffffff1673ffffffffffffffffffffffffffffffffffffffff168152602001908152602001600020600501600160008c73ffffffffffffffffffffffffffffffffffffffff1673ffffffffffffffffffffffffffffffffffffffff168152602001908152602001600020600601600160008d73ffffffffffffffffffffffffffffffffffffffff1673ffffffffffffffffffffffffffffffffffffffff1681526020019081526020016000206003018580546106b890612601565b80601f01602080910402602001604051908101604052809291908181526020018280546106e490612601565b80156107315780601f1061070657610100808354040283529160200191610731565b820191906000526020600020905b81548152906001019060200180831161071457829003601f168201915b5050505050955084805461074490612601565b80601f016020809104026020016040519081016040528092919081815260200182805461077090612601565b80156107bd5780601f10610792576101008083540402835291602001916107bd565b820191906000526020600020905b8154815290600101906020018083116107a057829003601f168201915b505050505094508380546107d090612601565b80601f01602080910402602001604051908101604052809291908181526020018280546107fc90612601565b80156108495780601f1061081e57610100808354040283529160200191610849565b820191906000526020600020905b81548152906001019060200180831161082c57829003601f168201915b5050505050935082805461085c90612601565b80601f016020809104026020016040519081016040528092919081815260200182805461088890612601565b80156108d55780601f106108aa576101008083540402835291602001916108d5565b820191906000526020600020905b8154815290600101906020018083116108b857829003601f168201915b505050505092508180546108e890612601565b80601f016020809104026020016040519081016040528092919081815260200182805461091490612601565b80156109615780601f1061093657610100808354040283529160200191610961565b820191906000526020600020905b81548152906001019060200180831161094457829003601f168201915b5050505050915080805461097490612601565b80601f01602080910402602001604051908101604052809291908181526020018280546109a090612601565b80156109ed5780601f106109c2576101008083540402835291602001916109ed565b820191906000526020600020905b8154815290600101906020018083116109d057829003601f168201915b5050505050905095509550955095509550955091939550919395565b60038181548110610a1957600080fd5b906000526020600020016000915054906101000a900473ffffffffffffffffffffffffffffffffffffffff1681565b610a50611887565b600260008373ffffffffffffffffffffffffffffffffffffffff1673ffffffffffffffffffffffffffffffffffffffff168152602001908152602001600020604051806040016040529081600082018054610aaa90612601565b80601f0160208091040260200160405190810160405280929190818152602001828054610ad690612601565b8015610b235780601f10610af857610100808354040283529160200191610b23565b820191906000526020600020905b815481529060010190602001808311610b0657829003601f168201915b50505050508152602001600182018054610b3c90612601565b80601f0160208091040260200160405190810160405280929190818152602001828054610b6890612601565b8015610bb55780601f10610b8a57610100808354040283529160200191610bb5565b820191906000526020600020905b815481529060010190602001808311610b9857829003601f168201915b5050505050815250509050919050565b60008054906101000a900473ffffffffffffffffffffffffffffffffffffffff1673ffffffffffffffffffffffffffffffffffffffff163373ffffffffffffffffffffffffffffffffffffffff1614610c1d57600080fd5b85600160008973ffffffffffffffffffffffffffffffffffffffff1673ffffffffffffffffffffffffffffffffffffffff1681526020019081526020016000206000019080519060200190610c739291906118a1565b5084600160008973ffffffffffffffffffffffffffffffffffffffff1673ffffffffffffffffffffffffffffffffffffffff1681526020019081526020016000206001019080519060200190610cca9291906118a1565b5083600160008973ffffffffffffffffffffffffffffffffffffffff1673ffffffffffffffffffffffffffffffffffffffff1681526020019081526020016000206002019080519060200190610d219291906118a1565b5082600160008973ffffffffffffffffffffffffffffffffffffffff1673ffffffffffffffffffffffffffffffffffffffff1681526020019081526020016000206003019080519060200190610d789291906118a1565b5081600160008973ffffffffffffffffffffffffffffffffffffffff1673ffffffffffffffffffffffffffffffffffffffff1681526020019081526020016000206005019080519060200190610dcf9291906118a1565b5080600160008973ffffffffffffffffffffffffffffffffffffffff1673ffffffffffffffffffffffffffffffffffffffff1681526020019081526020016000206006019080519060200190610e269291906118a1565b506003879080600181540180825580915050600190039060005260206000200160009091909190916101000a81548173ffffffffffffffffffffffffffffffffffffffff021916908373ffffffffffffffffffffffffffffffffffffffff16021790555050505050505050565b60008054906101000a900473ffffffffffffffffffffffffffffffffffffffff1681565b60606000610ec4846117a7565b90506000610ed1846117a7565b90506000610fa8600160008973ffffffffffffffffffffffffffffffffffffffff1673ffffffffffffffffffffffffffffffffffffffff1681526020019081526020016000206005018054610f2590612601565b80601f0160208091040260200160405190810160405280929190818152602001828054610f5190612601565b8015610f9e5780601f10610f7357610100808354040283529160200191610f9e565b820191906000526020600020905b815481529060010190602001808311610f8157829003601f168201915b50505050506117a7565b9050600061107f600160008a73ffffffffffffffffffffffffffffffffffffffff1673ffffffffffffffffffffffffffffffffffffffff1681526020019081526020016000206006018054610ffc90612601565b80601f016020809104026020016040519081016040528092919081815260200182805461102890612601565b80156110755780601f1061104a57610100808354040283529160200191611075565b820191906000526020600020905b81548152906001019060200180831161105857829003601f168201915b50505050506117a7565b90506000611156600160008b73ffffffffffffffffffffffffffffffffffffffff1673ffffffffffffffffffffffffffffffffffffffff16815260200190815260200160002060030180546110d390612601565b80601f01602080910402602001604051908101604052809291908181526020018280546110ff90612601565b801561114c5780601f106111215761010080835404028352916020019161114c565b820191906000526020600020905b81548152906001019060200180831161112f57829003601f168201915b50505050506117a7565b90508382101580156111685750828410155b6111a7576040517f08c379a000000000000000000000000000000000000000000000000000000000815260040161119e90612159565b60405180910390fd5b8481106111f0576040518060400160405280600881526020017f417070726f7665640000000000000000000000000000000000000000000000008152509550505050505061122e565b6040518060400160405280601181526020017f4f7574206f6620636f6d706c69616e6365000000000000000000000000000000815250955050505050505b9392505050565b6000600380549050905090565b60008054906101000a900473ffffffffffffffffffffffffffffffffffffffff1673ffffffffffffffffffffffffffffffffffffffff163373ffffffffffffffffffffffffffffffffffffffff16146112d0576040517f08c379a00000000000000000000000000000000000000000000000000000000081526004016112c790612179565b60405180910390fd5b8173ffffffffffffffffffffffffffffffffffffffff166108fc829081150290604051600060405180830381858888f19350505050158015611316573d6000803e3d6000fd5b507f7fa9aafeb8bb803d77de5d84bc2f2edbd842ca91b20cd5020aa21dfe26ab0be982824760405161134a9392919061201c565b60405180910390a15050565b6000611363848484610eb7565b905060405160200161137490611fbc565b604051602081830303815290604052805190602001208160405160200161139b9190611f8e565b604051602081830303815290604052805190602001201415611448576040518060400160405280600681526020017f6163636570740000000000000000000000000000000000000000000000000000815250600260008673ffffffffffffffffffffffffffffffffffffffff1673ffffffffffffffffffffffffffffffffffffffff16815260200190815260200160002060000190805190602001906114429291906118a1565b50611528565b60405160200161145790611fd1565b604051602081830303815290604052805190602001208160405160200161147e9190611f8e565b604051602081830303815290604052805190602001201415611527576040518060400160405280600781526020017f6465636c696e6500000000000000000000000000000000000000000000000000815250600260008673ffffffffffffffffffffffffffffffffffffffff1673ffffffffffffffffffffffffffffffffffffffff16815260200190815260200160002060010190805190602001906115259291906118a1565b505b5b50505050565b6060826040516020016115419190611f8e565b60405160208183030381529060405280519060200120600160008673ffffffffffffffffffffffffffffffffffffffff1673ffffffffffffffffffffffffffffffffffffffff1681526020019081526020016000206001016040516020016115a99190611fa5565b604051602081830303815290604052805190602001201015801561165a5750816040516020016115d99190611f8e565b60405160208183030381529060405280519060200120600160008673ffffffffffffffffffffffffffffffffffffffff1673ffffffffffffffffffffffffffffffffffffffff1681526020019081526020016000206002016040516020016116419190611fa5565b6040516020818303038152906040528051906020012010155b1561169c576040518060400160405280600781526020017f636f72726563740000000000000000000000000000000000000000000000000081525090506116d5565b6040518060400160405280600981526020017f696e636f7272656374000000000000000000000000000000000000000000000081525090505b9392505050565b7f90890809c654f11d6e72a28fa60149770a0d11ec6c92319d6ceb2bb0a4ea1a1533344760405161170f93929190612053565b60405180910390a1565b6060600380548060200260200160405190810160405280929190818152602001828054801561179d57602002820191906000526020600020905b8160009054906101000a900473ffffffffffffffffffffffffffffffffffffffff1673ffffffffffffffffffffffffffffffffffffffff1681526020019060010190808311611753575b5050505050905090565b60008060009050600083905060005b815181101561187c5760008183516117ce9190612507565b9050600083838151811061180b577f4e487b7100000000000000000000000000000000000000000000000000000000600052603260045260246000fd5b602001015160f81c60f81b905060008160f81c9050600060308260ff166118329190612507565b90506001846118419190612507565b600a61184d919061238f565b8161185891906124ad565b8761186391906122e6565b965050505050808061187490612633565b9150506117b6565b508192505050919050565b604051806040016040528060608152602001606081525090565b8280546118ad90612601565b90600052602060002090601f0160209004810192826118cf5760008555611916565b82601f106118e857805160ff1916838001178555611916565b82800160010185558215611916579182015b828111156119155782518255916020019190600101906118fa565b5b5090506119239190611927565b5090565b5b80821115611940576000816000905550600101611928565b5090565b600061195761195284612230565b6121ff565b90508281526020810184848401111561196f57600080fd5b61197a8482856125bf565b509392505050565b60008135905061199181612727565b92915050565b6000813590506119a68161273e565b92915050565b600082601f8301126119bd57600080fd5b81356119cd848260208601611944565b91505092915050565b6000813590506119e581612755565b92915050565b6000602082840312156119fd57600080fd5b6000611a0b84828501611982565b91505092915050565b60008060408385031215611a2757600080fd5b6000611a3585828601611997565b9250506020611a46858286016119d6565b9150509250929050565b600080600060608486031215611a6557600080fd5b6000611a7386828701611982565b935050602084013567ffffffffffffffff811115611a9057600080fd5b611a9c868287016119ac565b925050604084013567ffffffffffffffff811115611ab957600080fd5b611ac5868287016119ac565b9150509250925092565b600080600080600080600060e0888a031215611aea57600080fd5b6000611af88a828b01611982565b975050602088013567ffffffffffffffff811115611b1557600080fd5b611b218a828b016119ac565b965050604088013567ffffffffffffffff811115611b3e57600080fd5b611b4a8a828b016119ac565b955050606088013567ffffffffffffffff811115611b6757600080fd5b611b738a828b016119ac565b945050608088013567ffffffffffffffff811115611b9057600080fd5b611b9c8a828b016119ac565b93505060a088013567ffffffffffffffff811115611bb957600080fd5b611bc58a828b016119ac565b92505060c088013567ffffffffffffffff811115611be257600080fd5b611bee8a828b016119ac565b91505092959891949750929550565b600060208284031215611c0f57600080fd5b600082013567ffffffffffffffff811115611c2957600080fd5b611c35848285016119ac565b91505092915050565b600060208284031215611c5057600080fd5b6000611c5e848285016119d6565b91505092915050565b6000611c738383611c9d565b60208301905092915050565b611c8881612589565b82525050565b611c978161254d565b82525050565b611ca68161253b565b82525050565b611cb58161253b565b82525050565b6000611cc682612285565b611cd081856122a8565b9350611cdb83612260565b8060005b83811015611d0c578151611cf38882611c67565b9750611cfe8361229b565b925050600181019050611cdf565b5085935050505092915050565b6000611d2482612290565b611d2e81856122b9565b9350611d3e8185602086016125ce565b611d4781612709565b840191505092915050565b6000611d5d82612290565b611d6781856122ca565b9350611d778185602086016125ce565b611d8081612709565b840191505092915050565b6000611d9682612290565b611da081856122db565b9350611db08185602086016125ce565b80840191505092915050565b60008154611dc981612601565b611dd381866122db565b94506001821660008114611dee5760018114611dff57611e32565b60ff19831686528186019350611e32565b611e0885612270565b60005b83811015611e2a57815481890152600182019150602081019050611e0b565b838801955050505b50505092915050565b6000611e486008836122db565b91507f417070726f7665640000000000000000000000000000000000000000000000006000830152600882019050919050565b6000611e88600b836122ca565b91507f6f7574206f662074696d650000000000000000000000000000000000000000006000830152602082019050919050565b6000611ec86011836122db565b91507f4f7574206f6620636f6d706c69616e63650000000000000000000000000000006000830152601182019050919050565b6000611f086009836122ca565b91507f4e6f74206f776e657200000000000000000000000000000000000000000000006000830152602082019050919050565b60006040830160008301518482036000860152611f588282611d19565b91505060208301518482036020860152611f728282611d19565b9150508091505092915050565b611f888161257f565b82525050565b6000611f9a8284611d8b565b915081905092915050565b6000611fb18284611dbc565b915081905092915050565b6000611fc782611e3b565b9150819050919050565b6000611fdc82611ebb565b9150819050919050565b6000602082019050611ffb6000830184611cac565b92915050565b60006020820190506120166000830184611c8e565b92915050565b60006060820190506120316000830186611c7f565b61203e6020830185611f7f565b61204b6040830184611f7f565b949350505050565b60006060820190506120686000830186611cac565b6120756020830185611f7f565b6120826040830184611f7f565b949350505050565b600060208201905081810360008301526120a48184611cbb565b905092915050565b600060208201905081810360008301526120c68184611d52565b905092915050565b600060c08201905081810360008301526120e88189611d52565b905081810360208301526120fc8188611d52565b905081810360408301526121108187611d52565b905081810360608301526121248186611d52565b905081810360808301526121388185611d52565b905081810360a083015261214c8184611d52565b9050979650505050505050565b6000602082019050818103600083015261217281611e7b565b9050919050565b6000602082019050818103600083015261219281611efb565b9050919050565b600060208201905081810360008301526121b38184611f3b565b905092915050565b60006020820190506121d06000830184611f7f565b92915050565b60006040820190506121eb6000830185611f7f565b6121f86020830184611f7f565b9392505050565b6000604051905081810181811067ffffffffffffffff82111715612226576122256126da565b5b8060405250919050565b600067ffffffffffffffff82111561224b5761224a6126da565b5b601f19601f8301169050602081019050919050565b6000819050602082019050919050565b60008190508160005260206000209050919050565b600081519050919050565b600081519050919050565b6000602082019050919050565b600082825260208201905092915050565b600082825260208201905092915050565b600082825260208201905092915050565b600081905092915050565b60006122f18261257f565b91506122fc8361257f565b9250827fffffffffffffffffffffffffffffffffffffffffffffffffffffffffffffffff038211156123315761233061267c565b5b828201905092915050565b6000808291508390505b6001851115612386578086048111156123625761236161267c565b5b60018516156123715780820291505b808102905061237f8561271a565b9450612346565b94509492505050565b600061239a8261257f565b91506123a58361257f565b92506123d27fffffffffffffffffffffffffffffffffffffffffffffffffffffffffffffffff84846123da565b905092915050565b6000826123ea57600190506124a6565b816123f857600090506124a6565b816001811461240e576002811461241857612447565b60019150506124a6565b60ff84111561242a5761242961267c565b5b8360020a9150848211156124415761244061267c565b5b506124a6565b5060208310610133831016604e8410600b841016171561247c5782820a9050838111156124775761247661267c565b5b6124a6565b612489848484600161233c565b925090508184048111156124a05761249f61267c565b5b81810290505b9392505050565b60006124b88261257f565b91506124c38361257f565b9250817fffffffffffffffffffffffffffffffffffffffffffffffffffffffffffffffff04831182151516156124fc576124fb61267c565b5b828202905092915050565b60006125128261257f565b915061251d8361257f565b9250828210156125305761252f61267c565b5b828203905092915050565b60006125468261255f565b9050919050565b60006125588261255f565b9050919050565b600073ffffffffffffffffffffffffffffffffffffffff82169050919050565b6000819050919050565b60006125948261259b565b9050919050565b60006125a6826125ad565b9050919050565b60006125b88261255f565b9050919050565b82818337600083830152505050565b60005b838110156125ec5780820151818401526020810190506125d1565b838111156125fb576000848401525b50505050565b6000600282049050600182168061261957607f821691505b6020821081141561262d5761262c6126ab565b5b50919050565b600061263e8261257f565b91507fffffffffffffffffffffffffffffffffffffffffffffffffffffffffffffffff8214156126715761267061267c565b5b600182019050919050565b7f4e487b7100000000000000000000000000000000000000000000000000000000600052601160045260246000fd5b7f4e487b7100000000000000000000000000000000000000000000000000000000600052602260045260246000fd5b7f4e487b7100000000000000000000000000000000000000000000000000000000600052604160045260246000fd5b6000601f19601f8301169050919050565b60008160011c9050919050565b6127308161253b565b811461273b57600080fd5b50565b6127478161254d565b811461275257600080fd5b50565b61275e8161257f565b811461276957600080fd5b5056fea26469706673582212208c3ae727ac2b2aa78cd77c27f373eb594dc8328dff6c8970d5e3f23620646e9f64736f6c63430008000033",
  "linkReferences": {},
  "deployedLinkReferences": {}
}